{
  "transactions": [
    {
      "hash": "0x694abf2219fda5848f910299ac384635bb9d872e8340a730761b162000ff8db8",
      "transactionType": "CALL",
      "contractName": null,
      "contractAddress": "0x855b0881580caeed3711cfb6f2f1704f8b6124ce",
      "function": "sendMessagePayLINK(uint64,address,uint256,uint256,bytes)",
      "arguments": [
        "14767482510784806043",
        "0x1804c8AB1F12E6bbf3894d4083f33e07309d1f38",
        "1000000",
        "1",
        "0x"
      ],
      "transaction": {
        "from": "0x667c1abd4e25be048b8217f90fc576780cca8218",
        "to": "0x855b0881580caeed3711cfb6f2f1704f8b6124ce",
        "gas": "0x6fec1",
        "value": "0x0",
        "input": "0xe017461e000000000000000000000000000000000000000000000000ccf0a31a221f3c9b0000000000000000000000001804c8ab1f12e6bbf3894d4083f33e07309d1f3800000000000000000000000000000000000000000000000000000000000f4240000000000000000000000000000000000000000000000000000000000000000100000000000000000000000000000000000000000000000000000000000000a00000000000000000000000000000000000000000000000000000000000000000",
        "nonce": "0x30c",
        "chainId": "0xaa36a7"
      },
      "additionalContracts": [],
      "isFixedGasLimit": false
    }
  ],
  "receipts": [
    {
      "status": "0x1",
      "cumulativeGasUsed": "0xa17b0f",
      "logs": [
        {
          "address": "0x779877a7b0d9e8603169ddbd7836e478b4624789",
          "topics": [
            "0x8c5be1e5ebec7d5bd14f71427d1e84f3dd0314c0f7b2291e5b200ac8c7c3b925",
            "0x000000000000000000000000855b0881580caeed3711cfb6f2f1704f8b6124ce",
            "0x0000000000000000000000000bf3de8c5d3e8a2b34d2beeb17abfcebaf363a59"
          ],
          "data": "0x000000000000000000000000000000000000000000000000005a6f489565c69d",
          "blockHash": "0x3a05e30345ac5f4229ae8c0682ecb76bdbfe4115f0c8587407320f222bd42a3f",
          "blockNumber": "0x9ff220",
          "blockTimestamp": "0x69bcf07c",
          "transactionHash": "0x694abf2219fda5848f910299ac384635bb9d872e8340a730761b162000ff8db8",
          "transactionIndex": "0x4a",
          "logIndex": "0x75",
          "removed": false
        },
        {
          "address": "0x1c7d4b196cb0c7b01d743fbc6116a902379c7238",
          "topics": [
            "0x8c5be1e5ebec7d5bd14f71427d1e84f3dd0314c0f7b2291e5b200ac8c7c3b925",
            "0x000000000000000000000000855b0881580caeed3711cfb6f2f1704f8b6124ce",
            "0x0000000000000000000000000bf3de8c5d3e8a2b34d2beeb17abfcebaf363a59"
          ],
          "data": "0x00000000000000000000000000000000000000000000000000000000000f4240",
          "blockHash": "0x3a05e30345ac5f4229ae8c0682ecb76bdbfe4115f0c8587407320f222bd42a3f",
          "blockNumber": "0x9ff220",
          "blockTimestamp": "0x69bcf07c",
          "transactionHash": "0x694abf2219fda5848f910299ac384635bb9d872e8340a730761b162000ff8db8",
          "transactionIndex": "0x4a",
          "logIndex": "0x76",
          "removed": false
        },
        {
          "address": "0x779877a7b0d9e8603169ddbd7836e478b4624789",
          "topics": [
            "0xddf252ad1be2c89b69c2b068fc378daa952ba7f163c4a11628f55a4df523b3ef",
            "0x000000000000000000000000855b0881580caeed3711cfb6f2f1704f8b6124ce",
            "0x00000000000000000000000012492154714fbd28f28219f6fc4315d19de1025b"
          ],
          "data": "0x000000000000000000000000000000000000000000000000005a6f489565c69d",
          "blockHash": "0x3a05e30345ac5f4229ae8c0682ecb76bdbfe4115f0c8587407320f222bd42a3f",
          "blockNumber": "0x9ff220",
          "blockTimestamp": "0x69bcf07c",
          "transactionHash": "0x694abf2219fda5848f910299ac384635bb9d872e8340a730761b162000ff8db8",
          "transactionIndex": "0x4a",
          "logIndex": "0x77",
          "removed": false
        },
        {
          "address": "0x779877a7b0d9e8603169ddbd7836e478b4624789",
          "topics": [
            "0x8c5be1e5ebec7d5bd14f71427d1e84f3dd0314c0f7b2291e5b200ac8c7c3b925",
            "0x000000000000000000000000855b0881580caeed3711cfb6f2f1704f8b6124ce",
            "0x0000000000000000000000000bf3de8c5d3e8a2b34d2beeb17abfcebaf363a59"
          ],
          "data": "0x0000000000000000000000000000000000000000000000000000000000000000",
          "blockHash": "0x3a05e30345ac5f4229ae8c0682ecb76bdbfe4115f0c8587407320f222bd42a3f",
          "blockNumber": "0x9ff220",
          "blockTimestamp": "0x69bcf07c",
          "transactionHash": "0x694abf2219fda5848f910299ac384635bb9d872e8340a730761b162000ff8db8",
          "transactionIndex": "0x4a",
          "logIndex": "0x78",
          "removed": false
        },
        {
          "address": "0x1c7d4b196cb0c7b01d743fbc6116a902379c7238",
          "topics": [
            "0xddf252ad1be2c89b69c2b068fc378daa952ba7f163c4a11628f55a4df523b3ef",
            "0x000000000000000000000000855b0881580caeed3711cfb6f2f1704f8b6124ce",
            "0x00000000000000000000000002eef4b366225362180d704c917c50f6c46af9e0"
          ],
          "data": "0x00000000000000000000000000000000000000000000000000000000000f4240",
          "blockHash": "0x3a05e30345ac5f4229ae8c0682ecb76bdbfe4115f0c8587407320f222bd42a3f",
          "blockNumber": "0x9ff220",
          "blockTimestamp": "0x69bcf07c",
          "transactionHash": "0x694abf2219fda5848f910299ac384635bb9d872e8340a730761b162000ff8db8",
          "transactionIndex": "0x4a",
          "logIndex": "0x79",
          "removed": false
        },
        {
          "address": "0x02eef4b366225362180d704c917c50f6c46af9e0",
          "topics": [
            "0xff0133389f9bb82d5b9385826160eaf2328039f6fa950eeb8cf0836da8178944",
            "0x000000000000000000000000000000000000000000000000ccf0a31a221f3c9b"
          ],
          "data": "0x0000000000000000000000001c7d4b196cb0c7b01d743fbc6116a902379c723800000000000000000000000000000000000000000000000000000000000f4240",
          "blockHash": "0x3a05e30345ac5f4229ae8c0682ecb76bdbfe4115f0c8587407320f222bd42a3f",
          "blockNumber": "0x9ff220",
          "blockTimestamp": "0x69bcf07c",
          "transactionHash": "0x694abf2219fda5848f910299ac384635bb9d872e8340a730761b162000ff8db8",
          "transactionIndex": "0x4a",
          "logIndex": "0x7a",
          "removed": false
        },
        {
          "address": "0x1c7d4b196cb0c7b01d743fbc6116a902379c7238",
          "topics": [
            "0xddf252ad1be2c89b69c2b068fc378daa952ba7f163c4a11628f55a4df523b3ef",
            "0x00000000000000000000000002eef4b366225362180d704c917c50f6c46af9e0",
            "0x000000000000000000000000e997d7d2f6e065a9a93fa2175e878fb9081f1f0a"
          ],
          "data": "0x00000000000000000000000000000000000000000000000000000000000f4240",
          "blockHash": "0x3a05e30345ac5f4229ae8c0682ecb76bdbfe4115f0c8587407320f222bd42a3f",
          "blockNumber": "0x9ff220",
          "blockTimestamp": "0x69bcf07c",
          "transactionHash": "0x694abf2219fda5848f910299ac384635bb9d872e8340a730761b162000ff8db8",
          "transactionIndex": "0x4a",
          "logIndex": "0x7b",
          "removed": false
        },
        {
          "address": "0x1c7d4b196cb0c7b01d743fbc6116a902379c7238",
          "topics": [
            "0xcc16f5dbb4873280815c1ee09dbd06736cffcc184412cf7a71a0fdb75d397ca5",
            "0x000000000000000000000000e997d7d2f6e065a9a93fa2175e878fb9081f1f0a"
          ],
          "data": "0x00000000000000000000000000000000000000000000000000000000000f4240",
          "blockHash": "0x3a05e30345ac5f4229ae8c0682ecb76bdbfe4115f0c8587407320f222bd42a3f",
          "blockNumber": "0x9ff220",
          "blockTimestamp": "0x69bcf07c",
          "transactionHash": "0x694abf2219fda5848f910299ac384635bb9d872e8340a730761b162000ff8db8",
          "transactionIndex": "0x4a",
          "logIndex": "0x7c",
          "removed": false
        },
        {
          "address": "0x1c7d4b196cb0c7b01d743fbc6116a902379c7238",
          "topics": [
            "0xddf252ad1be2c89b69c2b068fc378daa952ba7f163c4a11628f55a4df523b3ef",
            "0x000000000000000000000000e997d7d2f6e065a9a93fa2175e878fb9081f1f0a",
            "0x0000000000000000000000000000000000000000000000000000000000000000"
          ],
          "data": "0x00000000000000000000000000000000000000000000000000000000000f4240",
          "blockHash": "0x3a05e30345ac5f4229ae8c0682ecb76bdbfe4115f0c8587407320f222bd42a3f",
          "blockNumber": "0x9ff220",
          "blockTimestamp": "0x69bcf07c",
          "transactionHash": "0x694abf2219fda5848f910299ac384635bb9d872e8340a730761b162000ff8db8",
          "transactionIndex": "0x4a",
          "logIndex": "0x7d",
          "removed": false
        },
        {
          "address": "0x7865fafc2db2093669d92c0f33aeef291086befd",
          "topics": [
            "0x8c5261668696ce22758910d05bab8f186d6eb247ceac2af2e82c7dc17669b036"
          ],
          "data": "0x000000000000000000000000000000000000000000000000000000000000002000000000000000000000000000000000000000000000000000000000000000f80000000000000000000000010000000000096e430000000000000000000000009f3b8679c73c2fef8b59b4f3444d4e156fb70aa5000000000000000000000000eb08f243e5d3fcff26a9e38ae5520a669f4019d0000000000000000000000000fb7b57501aea0789d312c5a062ebfac016f8eb11000000000000000000000000000000001c7d4b196cb0c7b01d743fbc6116a902379c723800000000000000000000000075ef33a278b30529e083af180edfe17f5b34f49d00000000000000000000000000000000000000000000000000000000000f424000000000000000000000000002eef4b366225362180d704c917c50f6c46af9e00000000000000000",
          "blockHash": "0x3a05e30345ac5f4229ae8c0682ecb76bdbfe4115f0c8587407320f222bd42a3f",
          "blockNumber": "0x9ff220",
          "blockTimestamp": "0x69bcf07c",
          "transactionHash": "0x694abf2219fda5848f910299ac384635bb9d872e8340a730761b162000ff8db8",
          "transactionIndex": "0x4a",
          "logIndex": "0x7e",
          "removed": false
        },
        {
          "address": "0x9f3b8679c73c2fef8b59b4f3444d4e156fb70aa5",
          "topics": [
            "0x2fa9ca894982930190727e75500a97d8dc500233a5065e0f3126c48fbe0343c0",
            "0x0000000000000000000000000000000000000000000000000000000000096e43",
            "0x0000000000000000000000001c7d4b196cb0c7b01d743fbc6116a902379c7238",
            "0x00000000000000000000000002eef4b366225362180d704c917c50f6c46af9e0"
          ],
          "data": "0x00000000000000000000000000000000000000000000000000000000000f424000000000000000000000000075ef33a278b30529e083af180edfe17f5b34f49d0000000000000000000000000000000000000000000000000000000000000001000000000000000000000000eb08f243e5d3fcff26a9e38ae5520a669f4019d0000000000000000000000000fb7b57501aea0789d312c5a062ebfac016f8eb11",
          "blockHash": "0x3a05e30345ac5f4229ae8c0682ecb76bdbfe4115f0c8587407320f222bd42a3f",
          "blockNumber": "0x9ff220",
          "blockTimestamp": "0x69bcf07c",
          "transactionHash": "0x694abf2219fda5848f910299ac384635bb9d872e8340a730761b162000ff8db8",
          "transactionIndex": "0x4a",
          "logIndex": "0x7f",
          "removed": false
        },
        {
          "address": "0x02eef4b366225362180d704c917c50f6c46af9e0",
          "topics": [
            "0xf33bc26b4413b0e7f19f1ea739fdf99098c0061f1f87d954b11f5293fad9ae10",
            "0x000000000000000000000000000000000000000000000000ccf0a31a221f3c9b"
          ],
          "data": "0x0000000000000000000000001c7d4b196cb0c7b01d743fbc6116a902379c723800000000000000000000000012492154714fbd28f28219f6fc4315d19de1025b00000000000000000000000000000000000000000000000000000000000f4240",
          "blockHash": "0x3a05e30345ac5f4229ae8c0682ecb76bdbfe4115f0c8587407320f222bd42a3f",
          "blockNumber": "0x9ff220",
          "blockTimestamp": "0x69bcf07c",
          "transactionHash": "0x694abf2219fda5848f910299ac384635bb9d872e8340a730761b162000ff8db8",
          "transactionIndex": "0x4a",
          "logIndex": "0x80",
          "removed": false
        },
        {
          "address": "0x12492154714fbd28f28219f6fc4315d19de1025b",
          "topics": [
            "0xd0c3c799bf9e2639de44391e7f524d229b2b55f5b1ea94b2bf7da42f7243dddd"
          ],
          "data": "0x0000000000000000000000000000000000000000000000000000000000000020000000000000000000000000000000000000000000000000de41ba4fc9d91ad9000000000000000000000000855b0881580caeed3711cfb6f2f1704f8b6124ce00000000000000000000000075ef33a278b30529e083af180edfe17f5b34f49d000000000000000000000000000000000000000000000000000000000000519b0000000000000000000000000000000000000000000000000000000000004e2000000000000000000000000000000000000000000000000000000000000000000000000000000000000000000000000000000000000000000000000000000000000000000000000000000000779877a7b0d9e8603169ddbd7836e478b4624789000000000000000000000000000000000000000000000000005a6f489565c69d00000000000000000000000000000000000000000000000000000000000001a0000000000000000000000000000000000000000000000000000000000000026000000000000000000000000000000000000000000000000000000000000002c0aac8129a2e441aaedb47ece7586fbf44cf0e9014a238054440f2053c571b977200000000000000000000000000000000000000000000000000000000000000a00000000000000000000000001804c8ab1f12e6bbf3894d4083f33e07309d1f38000000000000000000000000000000000000000000000000000000000000000100000000000000000000000000000000000000000000000000000000000f42400000000000000000000000000000000000000000000000000000000000000080000000000000000000000000000000000000000000000000000000000000000000000000000000000000000000000000000000000000000000000000000000010000000000000000000000001c7d4b196cb0c7b01d743fbc6116a902379c723800000000000000000000000000000000000000000000000000000000000f42400000000000000000000000000000000000000000000000000000000000000001000000000000000000000000000000000000000000000000000000000000002000000000000000000000000000000000000000000000000000000000000001800000000000000000000000000000000000000000000000000000000000000020000000000000000000000000000000000000000000000000000000000000008000000000000000000000000000000000000000000000000000000000000000c00000000000000000000000000000000000000000000000000000000000000100000000000000000000000000000000000000000000000000000000000002bf20000000000000000000000000000000000000000000000000000000000000002000000000000000000000000002eef4b366225362180d704c917c50f6c46af9e000000000000000000000000000000000000000000000000000000000000000200000000000000000000000005425890298aed601595a70ab815c96711a31bc6500000000000000000000000000000000000000000000000000000000000000400000000000000000000000000000000000000000000000000000000000096e430000000000000000000000000000000000000000000000000000000000000000",
          "blockHash": "0x3a05e30345ac5f4229ae8c0682ecb76bdbfe4115f0c8587407320f222bd42a3f",
          "blockNumber": "0x9ff220",
          "blockTimestamp": "0x69bcf07c",
          "transactionHash": "0x694abf2219fda5848f910299ac384635bb9d872e8340a730761b162000ff8db8",
          "transactionIndex": "0x4a",
          "logIndex": "0x81",
          "removed": false
        },
        {
          "address": "0x855b0881580caeed3711cfb6f2f1704f8b6124ce",
          "topics": [
            "0x80f8e2b9197752b9e33afaa4f92703ac7efbbf247cddcc732b1b555ff1dea27b",
            "0xaac8129a2e441aaedb47ece7586fbf44cf0e9014a238054440f2053c571b9772",
            "0x000000000000000000000000000000000000000000000000ccf0a31a221f3c9b",
            "0x00000000000000000000000075ef33a278b30529e083af180edfe17f5b34f49d"
          ],
          "data": "0x0000000000000000000000001804c8ab1f12e6bbf3894d4083f33e07309d1f380000000000000000000000001c7d4b196cb0c7b01d743fbc6116a902379c723800000000000000000000000000000000000000000000000000000000000f4240000000000000000000000000779877a7b0d9e8603169ddbd7836e478b4624789000000000000000000000000000000000000000000000000005a6f489565c69d",
          "blockHash": "0x3a05e30345ac5f4229ae8c0682ecb76bdbfe4115f0c8587407320f222bd42a3f",
          "blockNumber": "0x9ff220",
          "blockTimestamp": "0x69bcf07c",
          "transactionHash": "0x694abf2219fda5848f910299ac384635bb9d872e8340a730761b162000ff8db8",
          "transactionIndex": "0x4a",
          "logIndex": "0x82",
          "removed": false
        }
      ],
      "logsBloom": "0x00000004040040000000100000000000004600000000001000000010000200000000008000000200000000000000000800000110000004000000000008200000100200001400000000000008000000000000000000000000000200420100000000000000022180400000000400008800080000000040000200100010100000000000000008101004000000000000800000000000000000000000000420200000024000000000081400000000010100000000008000000000000100400000000000000002080000000401000000000000000000000000000300000804000020200050000400008020000010000000002084080000000000000000000000800000",
      "type": "0x2",
      "transactionHash": "0x694abf2219fda5848f910299ac384635bb9d872e8340a730761b162000ff8db8",
      "transactionIndex": "0x4a",
      "blockHash": "0x3a05e30345ac5f4229ae8c0682ecb76bdbfe4115f0c8587407320f222bd42a3f",
      "blockNumber": "0x9ff220",
      "gasUsed": "0x4c873",
      "effectiveGasPrice": "0xf424a",
      "from": "0x667c1abd4e25be048b8217f90fc576780cca8218",
      "to": "0x855b0881580caeed3711cfb6f2f1704f8b6124ce",
      "contractAddress": null
    }
  ],
  "libraries": [],
  "pending": [],
  "returns": {},
  "timestamp": 1773990014352,
  "chain": 11155111,
  "commit": "004061f"
}