{
  "transactions": [
    {
      "hash": "0xca1802fbeb42c7f5152efe1fae361b6a9a1b60d0345e0d254118893be17d388d",
      "transactionType": "CALL",
      "contractName": null,
      "contractAddress": "0x7bdc5e441da38e15d7c0911acf96a04fb67624ce",
      "function": "sendMessagePayLINK(uint64,address,uint256,uint256)",
      "arguments": [
        "14767482510784806043",
        "0x1804c8AB1F12E6bbf3894d4083f33e07309d1f38",
        "1000000",
        "1"
      ],
      "transaction": {
        "from": "0x667c1abd4e25be048b8217f90fc576780cca8218",
        "to": "0x7bdc5e441da38e15d7c0911acf96a04fb67624ce",
        "gas": "0x720f0",
        "value": "0x0",
        "input": "0x7361d661000000000000000000000000000000000000000000000000ccf0a31a221f3c9b0000000000000000000000001804c8ab1f12e6bbf3894d4083f33e07309d1f3800000000000000000000000000000000000000000000000000000000000f42400000000000000000000000000000000000000000000000000000000000000001",
        "nonce": "0x2b1",
        "chainId": "0xaa36a7"
      },
      "additionalContracts": [],
      "isFixedGasLimit": false
    }
  ],
  "receipts": [
    {
      "status": "0x1",
      "cumulativeGasUsed": "0xb7062e",
      "logs": [
        {
          "address": "0x779877a7b0d9e8603169ddbd7836e478b4624789",
          "topics": [
            "0x8c5be1e5ebec7d5bd14f71427d1e84f3dd0314c0f7b2291e5b200ac8c7c3b925",
            "0x0000000000000000000000007bdc5e441da38e15d7c0911acf96a04fb67624ce",
            "0x0000000000000000000000000bf3de8c5d3e8a2b34d2beeb17abfcebaf363a59"
          ],
          "data": "0x0000000000000000000000000000000000000000000000000058abcf21d570f2",
          "blockHash": "0xa59ef9d3d7bcf98890c8c25c258c141156848c22e477a79c767a2db1d5106506",
          "blockNumber": "0x9fe6c0",
          "blockTimestamp": "0x69bc64fc",
          "transactionHash": "0xca1802fbeb42c7f5152efe1fae361b6a9a1b60d0345e0d254118893be17d388d",
          "transactionIndex": "0x4f",
          "logIndex": "0xb9",
          "removed": false
        },
        {
          "address": "0x1c7d4b196cb0c7b01d743fbc6116a902379c7238",
          "topics": [
            "0x8c5be1e5ebec7d5bd14f71427d1e84f3dd0314c0f7b2291e5b200ac8c7c3b925",
            "0x0000000000000000000000007bdc5e441da38e15d7c0911acf96a04fb67624ce",
            "0x0000000000000000000000000bf3de8c5d3e8a2b34d2beeb17abfcebaf363a59"
          ],
          "data": "0x00000000000000000000000000000000000000000000000000000000000f4240",
          "blockHash": "0xa59ef9d3d7bcf98890c8c25c258c141156848c22e477a79c767a2db1d5106506",
          "blockNumber": "0x9fe6c0",
          "blockTimestamp": "0x69bc64fc",
          "transactionHash": "0xca1802fbeb42c7f5152efe1fae361b6a9a1b60d0345e0d254118893be17d388d",
          "transactionIndex": "0x4f",
          "logIndex": "0xba",
          "removed": false
        },
        {
          "address": "0x779877a7b0d9e8603169ddbd7836e478b4624789",
          "topics": [
            "0xddf252ad1be2c89b69c2b068fc378daa952ba7f163c4a11628f55a4df523b3ef",
            "0x0000000000000000000000007bdc5e441da38e15d7c0911acf96a04fb67624ce",
            "0x00000000000000000000000012492154714fbd28f28219f6fc4315d19de1025b"
          ],
          "data": "0x0000000000000000000000000000000000000000000000000058abcf21d570f2",
          "blockHash": "0xa59ef9d3d7bcf98890c8c25c258c141156848c22e477a79c767a2db1d5106506",
          "blockNumber": "0x9fe6c0",
          "blockTimestamp": "0x69bc64fc",
          "transactionHash": "0xca1802fbeb42c7f5152efe1fae361b6a9a1b60d0345e0d254118893be17d388d",
          "transactionIndex": "0x4f",
          "logIndex": "0xbb",
          "removed": false
        },
        {
          "address": "0x779877a7b0d9e8603169ddbd7836e478b4624789",
          "topics": [
            "0x8c5be1e5ebec7d5bd14f71427d1e84f3dd0314c0f7b2291e5b200ac8c7c3b925",
            "0x0000000000000000000000007bdc5e441da38e15d7c0911acf96a04fb67624ce",
            "0x0000000000000000000000000bf3de8c5d3e8a2b34d2beeb17abfcebaf363a59"
          ],
          "data": "0x0000000000000000000000000000000000000000000000000000000000000000",
          "blockHash": "0xa59ef9d3d7bcf98890c8c25c258c141156848c22e477a79c767a2db1d5106506",
          "blockNumber": "0x9fe6c0",
          "blockTimestamp": "0x69bc64fc",
          "transactionHash": "0xca1802fbeb42c7f5152efe1fae361b6a9a1b60d0345e0d254118893be17d388d",
          "transactionIndex": "0x4f",
          "logIndex": "0xbc",
          "removed": false
        },
        {
          "address": "0x1c7d4b196cb0c7b01d743fbc6116a902379c7238",
          "topics": [
            "0xddf252ad1be2c89b69c2b068fc378daa952ba7f163c4a11628f55a4df523b3ef",
            "0x0000000000000000000000007bdc5e441da38e15d7c0911acf96a04fb67624ce",
            "0x00000000000000000000000002eef4b366225362180d704c917c50f6c46af9e0"
          ],
          "data": "0x00000000000000000000000000000000000000000000000000000000000f4240",
          "blockHash": "0xa59ef9d3d7bcf98890c8c25c258c141156848c22e477a79c767a2db1d5106506",
          "blockNumber": "0x9fe6c0",
          "blockTimestamp": "0x69bc64fc",
          "transactionHash": "0xca1802fbeb42c7f5152efe1fae361b6a9a1b60d0345e0d254118893be17d388d",
          "transactionIndex": "0x4f",
          "logIndex": "0xbd",
          "removed": false
        },
        {
          "address": "0x02eef4b366225362180d704c917c50f6c46af9e0",
          "topics": [
            "0xff0133389f9bb82d5b9385826160eaf2328039f6fa950eeb8cf0836da8178944",
            "0x000000000000000000000000000000000000000000000000ccf0a31a221f3c9b"
          ],
          "data": "0x0000000000000000000000001c7d4b196cb0c7b01d743fbc6116a902379c723800000000000000000000000000000000000000000000000000000000000f4240",
          "blockHash": "0xa59ef9d3d7bcf98890c8c25c258c141156848c22e477a79c767a2db1d5106506",
          "blockNumber": "0x9fe6c0",
          "blockTimestamp": "0x69bc64fc",
          "transactionHash": "0xca1802fbeb42c7f5152efe1fae361b6a9a1b60d0345e0d254118893be17d388d",
          "transactionIndex": "0x4f",
          "logIndex": "0xbe",
          "removed": false
        },
        {
          "address": "0x1c7d4b196cb0c7b01d743fbc6116a902379c7238",
          "topics": [
            "0xddf252ad1be2c89b69c2b068fc378daa952ba7f163c4a11628f55a4df523b3ef",
            "0x00000000000000000000000002eef4b366225362180d704c917c50f6c46af9e0",
            "0x000000000000000000000000e997d7d2f6e065a9a93fa2175e878fb9081f1f0a"
          ],
          "data": "0x00000000000000000000000000000000000000000000000000000000000f4240",
          "blockHash": "0xa59ef9d3d7bcf98890c8c25c258c141156848c22e477a79c767a2db1d5106506",
          "blockNumber": "0x9fe6c0",
          "blockTimestamp": "0x69bc64fc",
          "transactionHash": "0xca1802fbeb42c7f5152efe1fae361b6a9a1b60d0345e0d254118893be17d388d",
          "transactionIndex": "0x4f",
          "logIndex": "0xbf",
          "removed": false
        },
        {
          "address": "0x1c7d4b196cb0c7b01d743fbc6116a902379c7238",
          "topics": [
            "0xcc16f5dbb4873280815c1ee09dbd06736cffcc184412cf7a71a0fdb75d397ca5",
            "0x000000000000000000000000e997d7d2f6e065a9a93fa2175e878fb9081f1f0a"
          ],
          "data": "0x00000000000000000000000000000000000000000000000000000000000f4240",
          "blockHash": "0xa59ef9d3d7bcf98890c8c25c258c141156848c22e477a79c767a2db1d5106506",
          "blockNumber": "0x9fe6c0",
          "blockTimestamp": "0x69bc64fc",
          "transactionHash": "0xca1802fbeb42c7f5152efe1fae361b6a9a1b60d0345e0d254118893be17d388d",
          "transactionIndex": "0x4f",
          "logIndex": "0xc0",
          "removed": false
        },
        {
          "address": "0x1c7d4b196cb0c7b01d743fbc6116a902379c7238",
          "topics": [
            "0xddf252ad1be2c89b69c2b068fc378daa952ba7f163c4a11628f55a4df523b3ef",
            "0x000000000000000000000000e997d7d2f6e065a9a93fa2175e878fb9081f1f0a",
            "0x0000000000000000000000000000000000000000000000000000000000000000"
          ],
          "data": "0x00000000000000000000000000000000000000000000000000000000000f4240",
          "blockHash": "0xa59ef9d3d7bcf98890c8c25c258c141156848c22e477a79c767a2db1d5106506",
          "blockNumber": "0x9fe6c0",
          "blockTimestamp": "0x69bc64fc",
          "transactionHash": "0xca1802fbeb42c7f5152efe1fae361b6a9a1b60d0345e0d254118893be17d388d",
          "transactionIndex": "0x4f",
          "logIndex": "0xc1",
          "removed": false
        },
        {
          "address": "0x7865fafc2db2093669d92c0f33aeef291086befd",
          "topics": [
            "0x8c5261668696ce22758910d05bab8f186d6eb247ceac2af2e82c7dc17669b036"
          ],
          "data": "0x000000000000000000000000000000000000000000000000000000000000002000000000000000000000000000000000000000000000000000000000000000f80000000000000000000000010000000000096e3f0000000000000000000000009f3b8679c73c2fef8b59b4f3444d4e156fb70aa5000000000000000000000000eb08f243e5d3fcff26a9e38ae5520a669f4019d0000000000000000000000000fb7b57501aea0789d312c5a062ebfac016f8eb11000000000000000000000000000000001c7d4b196cb0c7b01d743fbc6116a902379c7238000000000000000000000000607717140bc2ef8d28deaa35ab412db151719e8900000000000000000000000000000000000000000000000000000000000f424000000000000000000000000002eef4b366225362180d704c917c50f6c46af9e00000000000000000",
          "blockHash": "0xa59ef9d3d7bcf98890c8c25c258c141156848c22e477a79c767a2db1d5106506",
          "blockNumber": "0x9fe6c0",
          "blockTimestamp": "0x69bc64fc",
          "transactionHash": "0xca1802fbeb42c7f5152efe1fae361b6a9a1b60d0345e0d254118893be17d388d",
          "transactionIndex": "0x4f",
          "logIndex": "0xc2",
          "removed": false
        },
        {
          "address": "0x9f3b8679c73c2fef8b59b4f3444d4e156fb70aa5",
          "topics": [
            "0x2fa9ca894982930190727e75500a97d8dc500233a5065e0f3126c48fbe0343c0",
            "0x0000000000000000000000000000000000000000000000000000000000096e3f",
            "0x0000000000000000000000001c7d4b196cb0c7b01d743fbc6116a902379c7238",
            "0x00000000000000000000000002eef4b366225362180d704c917c50f6c46af9e0"
          ],
          "data": "0x00000000000000000000000000000000000000000000000000000000000f4240000000000000000000000000607717140bc2ef8d28deaa35ab412db151719e890000000000000000000000000000000000000000000000000000000000000001000000000000000000000000eb08f243e5d3fcff26a9e38ae5520a669f4019d0000000000000000000000000fb7b57501aea0789d312c5a062ebfac016f8eb11",
          "blockHash": "0xa59ef9d3d7bcf98890c8c25c258c141156848c22e477a79c767a2db1d5106506",
          "blockNumber": "0x9fe6c0",
          "blockTimestamp": "0x69bc64fc",
          "transactionHash": "0xca1802fbeb42c7f5152efe1fae361b6a9a1b60d0345e0d254118893be17d388d",
          "transactionIndex": "0x4f",
          "logIndex": "0xc3",
          "removed": false
        },
        {
          "address": "0x02eef4b366225362180d704c917c50f6c46af9e0",
          "topics": [
            "0xf33bc26b4413b0e7f19f1ea739fdf99098c0061f1f87d954b11f5293fad9ae10",
            "0x000000000000000000000000000000000000000000000000ccf0a31a221f3c9b"
          ],
          "data": "0x0000000000000000000000001c7d4b196cb0c7b01d743fbc6116a902379c723800000000000000000000000012492154714fbd28f28219f6fc4315d19de1025b00000000000000000000000000000000000000000000000000000000000f4240",
          "blockHash": "0xa59ef9d3d7bcf98890c8c25c258c141156848c22e477a79c767a2db1d5106506",
          "blockNumber": "0x9fe6c0",
          "blockTimestamp": "0x69bc64fc",
          "transactionHash": "0xca1802fbeb42c7f5152efe1fae361b6a9a1b60d0345e0d254118893be17d388d",
          "transactionIndex": "0x4f",
          "logIndex": "0xc4",
          "removed": false
        },
        {
          "address": "0x12492154714fbd28f28219f6fc4315d19de1025b",
          "topics": [
            "0xd0c3c799bf9e2639de44391e7f524d229b2b55f5b1ea94b2bf7da42f7243dddd"
          ],
          "data": "0x0000000000000000000000000000000000000000000000000000000000000020000000000000000000000000000000000000000000000000de41ba4fc9d91ad90000000000000000000000007bdc5e441da38e15d7c0911acf96a04fb67624ce000000000000000000000000607717140bc2ef8d28deaa35ab412db151719e8900000000000000000000000000000000000000000000000000000000000051960000000000000000000000000000000000000000000000000000000000004e2000000000000000000000000000000000000000000000000000000000000000000000000000000000000000000000000000000000000000000000000000000000000000000000000000000000779877a7b0d9e8603169ddbd7836e478b46247890000000000000000000000000000000000000000000000000058abcf21d570f200000000000000000000000000000000000000000000000000000000000001a000000000000000000000000000000000000000000000000000000000000002c00000000000000000000000000000000000000000000000000000000000000320a4ba63fffab4fab098aff1e731209755d782910e98cddca50b498a70a9d6b6a500000000000000000000000000000000000000000000000000000000000001000000000000000000000000001804c8ab1f12e6bbf3894d4083f33e07309d1f38000000000000000000000000000000000000000000000000000000000000000100000000000000000000000000000000000000000000000000000000000f424000000000000000000000000000000000000000000000000000000000000000800000000000000000000000000000000000000000000000000000000000000044adc9772e0000000000000000000000001804c8ab1f12e6bbf3894d4083f33e07309d1f3800000000000000000000000000000000000000000000000000000000000f42400000000000000000000000000000000000000000000000000000000000000000000000000000000000000000000000000000000000000000000000010000000000000000000000001c7d4b196cb0c7b01d743fbc6116a902379c723800000000000000000000000000000000000000000000000000000000000f42400000000000000000000000000000000000000000000000000000000000000001000000000000000000000000000000000000000000000000000000000000002000000000000000000000000000000000000000000000000000000000000001800000000000000000000000000000000000000000000000000000000000000020000000000000000000000000000000000000000000000000000000000000008000000000000000000000000000000000000000000000000000000000000000c00000000000000000000000000000000000000000000000000000000000000100000000000000000000000000000000000000000000000000000000000002bf20000000000000000000000000000000000000000000000000000000000000002000000000000000000000000002eef4b366225362180d704c917c50f6c46af9e000000000000000000000000000000000000000000000000000000000000000200000000000000000000000005425890298aed601595a70ab815c96711a31bc6500000000000000000000000000000000000000000000000000000000000000400000000000000000000000000000000000000000000000000000000000096e3f0000000000000000000000000000000000000000000000000000000000000000",
          "blockHash": "0xa59ef9d3d7bcf98890c8c25c258c141156848c22e477a79c767a2db1d5106506",
          "blockNumber": "0x9fe6c0",
          "blockTimestamp": "0x69bc64fc",
          "transactionHash": "0xca1802fbeb42c7f5152efe1fae361b6a9a1b60d0345e0d254118893be17d388d",
          "transactionIndex": "0x4f",
          "logIndex": "0xc5",
          "removed": false
        },
        {
          "address": "0x7bdc5e441da38e15d7c0911acf96a04fb67624ce",
          "topics": [
            "0x80f8e2b9197752b9e33afaa4f92703ac7efbbf247cddcc732b1b555ff1dea27b",
            "0xa4ba63fffab4fab098aff1e731209755d782910e98cddca50b498a70a9d6b6a5",
            "0x000000000000000000000000000000000000000000000000ccf0a31a221f3c9b",
            "0x000000000000000000000000607717140bc2ef8d28deaa35ab412db151719e89"
          ],
          "data": "0x0000000000000000000000001804c8ab1f12e6bbf3894d4083f33e07309d1f380000000000000000000000001c7d4b196cb0c7b01d743fbc6116a902379c723800000000000000000000000000000000000000000000000000000000000f4240000000000000000000000000779877a7b0d9e8603169ddbd7836e478b46247890000000000000000000000000000000000000000000000000058abcf21d570f2",
          "blockHash": "0xa59ef9d3d7bcf98890c8c25c258c141156848c22e477a79c767a2db1d5106506",
          "blockNumber": "0x9fe6c0",
          "blockTimestamp": "0x69bc64fc",
          "transactionHash": "0xca1802fbeb42c7f5152efe1fae361b6a9a1b60d0345e0d254118893be17d388d",
          "transactionIndex": "0x4f",
          "logIndex": "0xc6",
          "removed": false
        }
      ],
      "logsBloom": "0x0000000400004000000000200000000000040000000000100000001000020000080000800000020000000000000100080000011000000400000000000020000010000000040080000000800800000000000000000000000000020002010000000000000002218040000000040000080008000000004000020010001010000000000000800810180400000000000080000000000000000000000040002820000002400000000008140000000001000000000000c000000000000100400000000000000002480000000400000000000000000000000020000300102804000020200010000400008020000010000000002004080000000000000008000000000000",
      "type": "0x2",
      "transactionHash": "0xca1802fbeb42c7f5152efe1fae361b6a9a1b60d0345e0d254118893be17d388d",
      "transactionIndex": "0x4f",
      "blockHash": "0xa59ef9d3d7bcf98890c8c25c258c141156848c22e477a79c767a2db1d5106506",
      "blockNumber": "0x9fe6c0",
      "gasUsed": "0x4dfd3",
      "effectiveGasPrice": "0xf424a",
      "from": "0x667c1abd4e25be048b8217f90fc576780cca8218",
      "to": "0x7bdc5e441da38e15d7c0911acf96a04fb67624ce",
      "contractAddress": null
    }
  ],
  "libraries": [],
  "pending": [],
  "returns": {},
  "timestamp": 1773954300322,
  "chain": 11155111,
  "commit": "ea7f5a8"
}