{
  "transactions": [
    {
      "hash": "0x316e2aabd270b4aa91e0a1d862c4d440682f3af9721be5efa0ba48297b04c027",
      "transactionType": "CALL",
      "contractName": null,
      "contractAddress": "0x607717140bc2ef8d28deaa35ab412db151719e89",
      "function": "setSenderForSourceChain(uint64,address)",
      "arguments": [
        "16015286601757825753",
        "0x855b0881580CAEeD3711CfB6f2F1704F8B6124Ce"
      ],
      "transaction": {
        "from": "0x667c1abd4e25be048b8217f90fc576780cca8218",
        "to": "0x607717140bc2ef8d28deaa35ab412db151719e89",
        "gas": "0xaa29",
        "value": "0x0",
        "input": "0xded394a3000000000000000000000000000000000000000000000000de41ba4fc9d91ad9000000000000000000000000855b0881580caeed3711cfb6f2f1704f8b6124ce",
        "nonce": "0xd5",
        "chainId": "0xa869"
      },
      "additionalContracts": [],
      "isFixedGasLimit": false
    }
  ],
  "receipts": [
    {
      "status": "0x1",
      "cumulativeGasUsed": "0x151c7",
      "logs": [],
      "logsBloom": "0x00000000000000000000000000000000000000000000000000000000000000000000000000000000000000000000000000000000000000000000000000000000000000000000000000000000000000000000000000000000000000000000000000000000000000000000000000000000000000000000000000000000000000000000000000000000000000000000000000000000000000000000000000000000000000000000000000000000000000000000000000000000000000000000000000000000000000000000000000000000000000000000000000000000000000000000000000000000000000000000000000000000000000000000000000000000",
      "type": "0x2",
      "transactionHash": "0x316e2aabd270b4aa91e0a1d862c4d440682f3af9721be5efa0ba48297b04c027",
      "transactionIndex": "0x1",
      "blockHash": "0x744b16754ea01d1efb367bccccd6249937037e56e699e34bdf7748a5754674e6",
      "blockNumber": "0x32861bd",
      "gasUsed": "0x745a",
      "effectiveGasPrice": "0x2",
      "from": "0x667c1abd4e25be048b8217f90fc576780cca8218",
      "to": "0x607717140bc2ef8d28deaa35ab412db151719e89",
      "contractAddress": null
    }
  ],
  "libraries": [],
  "pending": [],
  "returns": {},
  "timestamp": 1773986938722,
  "chain": 43113,
  "commit": "232ed5d"
}