{
  "transactions": [
    {
      "hash": "0x17eba56e92003507d9b5bc4023c2243f93e69d6703d48dd009d25532aca27d6b",
      "transactionType": "CALL",
      "contractName": null,
      "contractAddress": "0x607717140bc2ef8d28deaa35ab412db151719e89",
      "function": "setSenderForSourceChain(uint64,address)",
      "arguments": [
        "16015286601757825753",
        "0x7bDc5E441da38E15D7C0911acF96A04FB67624Ce"
      ],
      "transaction": {
        "from": "0x667c1abd4e25be048b8217f90fc576780cca8218",
        "to": "0x607717140bc2ef8d28deaa35ab412db151719e89",
        "gas": "0xfcf8",
        "value": "0x0",
        "input": "0xded394a3000000000000000000000000000000000000000000000000de41ba4fc9d91ad90000000000000000000000007bdc5e441da38e15d7c0911acf96a04fb67624ce",
        "nonce": "0xd4",
        "chainId": "0xa869"
      },
      "additionalContracts": [],
      "isFixedGasLimit": false
    }
  ],
  "receipts": [
    {
      "status": "0x1",
      "cumulativeGasUsed": "0xb726",
      "logs": [],
      "logsBloom": "0x00000000000000000000000000000000000000000000000000000000000000000000000000000000000000000000000000000000000000000000000000000000000000000000000000000000000000000000000000000000000000000000000000000000000000000000000000000000000000000000000000000000000000000000000000000000000000000000000000000000000000000000000000000000000000000000000000000000000000000000000000000000000000000000000000000000000000000000000000000000000000000000000000000000000000000000000000000000000000000000000000000000000000000000000000000000",
      "type": "0x2",
      "transactionHash": "0x17eba56e92003507d9b5bc4023c2243f93e69d6703d48dd009d25532aca27d6b",
      "transactionIndex": "0x0",
      "blockHash": "0x1447d156650dc17c68cdcff55c765baa7c2e1e4c761c81997256b05b6c8cd063",
      "blockNumber": "0x3282c09",
      "gasUsed": "0xb726",
      "effectiveGasPrice": "0x2",
      "from": "0x667c1abd4e25be048b8217f90fc576780cca8218",
      "to": "0x607717140bc2ef8d28deaa35ab412db151719e89",
      "contractAddress": null
    }
  ],
  "libraries": [],
  "pending": [],
  "returns": {},
  "timestamp": 1773954169687,
  "chain": 43113,
  "commit": "ea7f5a8"
}