{
  "transactions": [
    {
      "hash": "0xf7667cb7c79512f810053d65ef1105dcd1b427ccfa97811c0457ce0c256685dc",
      "transactionType": "CALL",
      "contractName": null,
      "contractAddress": "0x75ef33a278b30529e083af180edfe17f5b34f49d",
      "function": "setSenderForSourceChain(uint64,address)",
      "arguments": [
        "16015286601757825753",
        "0x855b0881580CAEeD3711CfB6f2F1704F8B6124Ce"
      ],
      "transaction": {
        "from": "0x667c1abd4e25be048b8217f90fc576780cca8218",
        "to": "0x75ef33a278b30529e083af180edfe17f5b34f49d",
        "gas": "0xfcf8",
        "value": "0x0",
        "input": "0xded394a3000000000000000000000000000000000000000000000000de41ba4fc9d91ad9000000000000000000000000855b0881580caeed3711cfb6f2f1704f8b6124ce",
        "nonce": "0xd8",
        "chainId": "0xa869"
      },
      "additionalContracts": [],
      "isFixedGasLimit": false
    }
  ],
  "receipts": [
    {
      "status": "0x1",
      "cumulativeGasUsed": "0x2a4f5",
      "logs": [],
      "logsBloom": "0x00000000000000000000000000000000000000000000000000000000000000000000000000000000000000000000000000000000000000000000000000000000000000000000000000000000000000000000000000000000000000000000000000000000000000000000000000000000000000000000000000000000000000000000000000000000000000000000000000000000000000000000000000000000000000000000000000000000000000000000000000000000000000000000000000000000000000000000000000000000000000000000000000000000000000000000000000000000000000000000000000000000000000000000000000000000",
      "type": "0x2",
      "transactionHash": "0xf7667cb7c79512f810053d65ef1105dcd1b427ccfa97811c0457ce0c256685dc",
      "transactionIndex": "0x2",
      "blockHash": "0x593e0494eb749d787c45cd530744faec360e0528c5c1b15ac667c3ca8efe9268",
      "blockNumber": "0x32862e1",
      "gasUsed": "0xb726",
      "effectiveGasPrice": "0x2",
      "from": "0x667c1abd4e25be048b8217f90fc576780cca8218",
      "to": "0x75ef33a278b30529e083af180edfe17f5b34f49d",
      "contractAddress": null
    }
  ],
  "libraries": [],
  "pending": [],
  "returns": {},
  "timestamp": 1773987726685,
  "chain": 43113,
  "commit": "232ed5d"
}