{
  "transactions": [
    {
      "hash": "0x061ddc2c464254a2b05acb6c0f3752286de38bc56e7fdda8fd4715bd99877329",
      "transactionType": "CALL",
      "contractName": null,
      "contractAddress": "0xe74a3f950e72baca2fb6bd12e989836bf4acce5d",
      "function": "swap((address,address,uint24,int24,address),int128,bool,uint256,bytes)",
      "arguments": [
        "(0x1c7D4B196Cb0C7B01d743Fbc6116a902379C7238, 0x3428Fb59Fa75E14A1ba6d33161FA69545f8B54aF, 8388608, 60, 0x7bDc5E441da38E15D7C0911acF96A04FB67624Ce)",
        "-1000000",
        "true",
        "0",
        "0x000000000000000000000000667c1abd4e25be048b8217f90fc576780cca821800000000000000000000000000000000000000000000000000000000000000600000000000000000000000000000000000000000000000000000000000000000000000000000000000000000667c1abd4e25be048b8217f90fc576780cca82180000000000000000000000000000000000000000000000000000000000000001000000000000000000000000000000000000000000000000000000000000000000000000000000000000000000000000000000000000000000000000000000800000000000000000000000000000000000000000000000000000000000000000"
      ],
      "transaction": {
        "from": "0x667c1abd4e25be048b8217f90fc576780cca8218",
        "to": "0xe74a3f950e72baca2fb6bd12e989836bf4acce5d",
        "gas": "0x3025d",
        "value": "0x0",
        "input": "0x39dff2ac0000000000000000000000001c7d4b196cb0c7b01d743fbc6116a902379c72380000000000000000000000003428fb59fa75e14a1ba6d33161fa69545f8b54af0000000000000000000000000000000000000000000000000000000000800000000000000000000000000000000000000000000000000000000000000000003c0000000000000000000000007bdc5e441da38e15d7c0911acf96a04fb67624cefffffffffffffffffffffffffffffffffffffffffffffffffffffffffff0bdc00000000000000000000000000000000000000000000000000000000000000001000000000000000000000000000000000000000000000000000000000000000000000000000000000000000000000000000000000000000000000000000001200000000000000000000000000000000000000000000000000000000000000100000000000000000000000000667c1abd4e25be048b8217f90fc576780cca821800000000000000000000000000000000000000000000000000000000000000600000000000000000000000000000000000000000000000000000000000000000000000000000000000000000667c1abd4e25be048b8217f90fc576780cca82180000000000000000000000000000000000000000000000000000000000000001000000000000000000000000000000000000000000000000000000000000000000000000000000000000000000000000000000000000000000000000000000800000000000000000000000000000000000000000000000000000000000000000",
        "nonce": "0x2f3",
        "chainId": "0xaa36a7"
      },
      "additionalContracts": [],
      "isFixedGasLimit": false
    }
  ],
  "receipts": [
    {
      "status": "0x1",
      "cumulativeGasUsed": "0xa66bb2",
      "logs": [
        {
          "address": "0x1c7d4b196cb0c7b01d743fbc6116a902379c7238",
          "topics": [
            "0xddf252ad1be2c89b69c2b068fc378daa952ba7f163c4a11628f55a4df523b3ef",
            "0x000000000000000000000000667c1abd4e25be048b8217f90fc576780cca8218",
            "0x000000000000000000000000e74a3f950e72baca2fb6bd12e989836bf4acce5d"
          ],
          "data": "0x00000000000000000000000000000000000000000000000000000000000f4240",
          "blockHash": "0xdb204396c0571535952ac6f273eab3d6ea7c9fcf9f4516c0fb627a76f6d34a1b",
          "blockNumber": "0x9ff0b1",
          "blockTimestamp": "0x69bcdedc",
          "transactionHash": "0x061ddc2c464254a2b05acb6c0f3752286de38bc56e7fdda8fd4715bd99877329",
          "transactionIndex": "0x48",
          "logIndex": "0x8a",
          "removed": false
        },
        {
          "address": "0x1c7d4b196cb0c7b01d743fbc6116a902379c7238",
          "topics": [
            "0x8c5be1e5ebec7d5bd14f71427d1e84f3dd0314c0f7b2291e5b200ac8c7c3b925",
            "0x000000000000000000000000e74a3f950e72baca2fb6bd12e989836bf4acce5d",
            "0x000000000000000000000000e03a1074c86cfedd5c142c4f04f1a1536e203543"
          ],
          "data": "0xffffffffffffffffffffffffffffffffffffffffffffffffffffffffffffffff",
          "blockHash": "0xdb204396c0571535952ac6f273eab3d6ea7c9fcf9f4516c0fb627a76f6d34a1b",
          "blockNumber": "0x9ff0b1",
          "blockTimestamp": "0x69bcdedc",
          "transactionHash": "0x061ddc2c464254a2b05acb6c0f3752286de38bc56e7fdda8fd4715bd99877329",
          "transactionIndex": "0x48",
          "logIndex": "0x8b",
          "removed": false
        },
        {
          "address": "0x1c7d4b196cb0c7b01d743fbc6116a902379c7238",
          "topics": [
            "0xddf252ad1be2c89b69c2b068fc378daa952ba7f163c4a11628f55a4df523b3ef",
            "0x000000000000000000000000e03a1074c86cfedd5c142c4f04f1a1536e203543",
            "0x0000000000000000000000007bdc5e441da38e15d7c0911acf96a04fb67624ce"
          ],
          "data": "0x00000000000000000000000000000000000000000000000000000000000f4240",
          "blockHash": "0xdb204396c0571535952ac6f273eab3d6ea7c9fcf9f4516c0fb627a76f6d34a1b",
          "blockNumber": "0x9ff0b1",
          "blockTimestamp": "0x69bcdedc",
          "transactionHash": "0x061ddc2c464254a2b05acb6c0f3752286de38bc56e7fdda8fd4715bd99877329",
          "transactionIndex": "0x48",
          "logIndex": "0x8c",
          "removed": false
        },
        {
          "address": "0xe03a1074c86cfedd5c142c4f04f1a1536e203543",
          "topics": [
            "0x40e9cecb9f5f1f1c5b9c97dec2917b7ee92e57ba5563708daca94dd84ad7112f",
            "0x9fd0796ea90a3acab268f569ff640b005d85a5096de8360a9417b3fa320aa0c6",
            "0x000000000000000000000000e74a3f950e72baca2fb6bd12e989836bf4acce5d"
          ],
          "data": "0x000000000000000000000000000000000000000000000000000000000000000000000000000000000000000000000000000000000000000000000000000000000000000000000000000000000000000000000000ff50934fcc67bab726c538d900000000000000000000000000000000000000000000000000000000162f8311ffffffffffffffffffffffffffffffffffffffffffffffffffffffffffffffca0000000000000000000000000000000000000000000000000000000000000000",
          "blockHash": "0xdb204396c0571535952ac6f273eab3d6ea7c9fcf9f4516c0fb627a76f6d34a1b",
          "blockNumber": "0x9ff0b1",
          "blockTimestamp": "0x69bcdedc",
          "transactionHash": "0x061ddc2c464254a2b05acb6c0f3752286de38bc56e7fdda8fd4715bd99877329",
          "transactionIndex": "0x48",
          "logIndex": "0x8d",
          "removed": false
        },
        {
          "address": "0x1c7d4b196cb0c7b01d743fbc6116a902379c7238",
          "topics": [
            "0xddf252ad1be2c89b69c2b068fc378daa952ba7f163c4a11628f55a4df523b3ef",
            "0x000000000000000000000000e74a3f950e72baca2fb6bd12e989836bf4acce5d",
            "0x000000000000000000000000e03a1074c86cfedd5c142c4f04f1a1536e203543"
          ],
          "data": "0x00000000000000000000000000000000000000000000000000000000000f4240",
          "blockHash": "0xdb204396c0571535952ac6f273eab3d6ea7c9fcf9f4516c0fb627a76f6d34a1b",
          "blockNumber": "0x9ff0b1",
          "blockTimestamp": "0x69bcdedc",
          "transactionHash": "0x061ddc2c464254a2b05acb6c0f3752286de38bc56e7fdda8fd4715bd99877329",
          "transactionIndex": "0x48",
          "logIndex": "0x8e",
          "removed": false
        }
      ],
      "logsBloom": "0x00000000000000000002000000000080000000000000000000000000000200000800000000000000000000000000000000000100040000000000000000200000000010000000000000000088000000000000000000000020000000000000000000000000000000000000000080000000000000000000100000000010000000000000000000102000000010000008000000000010000000000000400000000000020000000000000000000000000000000000000000000000000000800000000000000002000000000000000000000000000000000000000000101000010000001010000000000000004010000000000000000000000000000000000000000000",
      "type": "0x2",
      "transactionHash": "0x061ddc2c464254a2b05acb6c0f3752286de38bc56e7fdda8fd4715bd99877329",
      "transactionIndex": "0x48",
      "blockHash": "0xdb204396c0571535952ac6f273eab3d6ea7c9fcf9f4516c0fb627a76f6d34a1b",
      "blockNumber": "0x9ff0b1",
      "gasUsed": "0x22dbc",
      "effectiveGasPrice": "0xf424e",
      "from": "0x667c1abd4e25be048b8217f90fc576780cca8218",
      "to": "0xe74a3f950e72baca2fb6bd12e989836bf4acce5d",
      "contractAddress": null
    }
  ],
  "libraries": [],
  "pending": [],
  "returns": {},
  "timestamp": 1773985502087,
  "chain": 11155111,
  "commit": "232ed5d"
}