{
  "transactions": [
    {
      "hash": "0x6a39a6af0489807e9bc83bf3ee8bb16976a381ea51e64a127541c72984f5d5c2",
      "transactionType": "CALL",
      "contractName": null,
      "contractAddress": "0xc00eaeaab46d7a78086113f881dc933730b8faab",
      "function": "swap((address,address,uint24,int24,address),int128,bool,uint256)",
      "arguments": [
        "(0x1c7D4B196Cb0C7B01d743Fbc6116a902379C7238, 0x3428Fb59Fa75E14A1ba6d33161FA69545f8B54aF, 8388608, 60, 0x7bDc5E441da38E15D7C0911acF96A04FB67624Ce)",
        "-1000000",
        "true",
        "0"
      ],
      "transaction": {
        "from": "0x667c1abd4e25be048b8217f90fc576780cca8218",
        "to": "0xc00eaeaab46d7a78086113f881dc933730b8faab",
        "gas": "0x442cb",
        "value": "0x0",
        "input": "0xf9ba8bfc0000000000000000000000001c7d4b196cb0c7b01d743fbc6116a902379c72380000000000000000000000003428fb59fa75e14a1ba6d33161fa69545f8b54af0000000000000000000000000000000000000000000000000000000000800000000000000000000000000000000000000000000000000000000000000000003c0000000000000000000000007bdc5e441da38e15d7c0911acf96a04fb67624cefffffffffffffffffffffffffffffffffffffffffffffffffffffffffff0bdc000000000000000000000000000000000000000000000000000000000000000010000000000000000000000000000000000000000000000000000000000000000",
        "nonce": "0x2ec",
        "chainId": "0xaa36a7"
      },
      "additionalContracts": [],
      "isFixedGasLimit": false
    }
  ],
  "receipts": [
    {
      "status": "0x1",
      "cumulativeGasUsed": "0x99b77f",
      "logs": [
        {
          "address": "0x1c7d4b196cb0c7b01d743fbc6116a902379c7238",
          "topics": [
            "0xddf252ad1be2c89b69c2b068fc378daa952ba7f163c4a11628f55a4df523b3ef",
            "0x000000000000000000000000667c1abd4e25be048b8217f90fc576780cca8218",
            "0x000000000000000000000000c00eaeaab46d7a78086113f881dc933730b8faab"
          ],
          "data": "0x00000000000000000000000000000000000000000000000000000000000f4240",
          "blockHash": "0xca3e43e53449a9bd79f01de861b4536bd9c91d63db2461ffda416d72e2571134",
          "blockNumber": "0x9ff067",
          "blockTimestamp": "0x69bcdb4c",
          "transactionHash": "0x6a39a6af0489807e9bc83bf3ee8bb16976a381ea51e64a127541c72984f5d5c2",
          "transactionIndex": "0x57",
          "logIndex": "0xbe",
          "removed": false
        },
        {
          "address": "0x1c7d4b196cb0c7b01d743fbc6116a902379c7238",
          "topics": [
            "0x8c5be1e5ebec7d5bd14f71427d1e84f3dd0314c0f7b2291e5b200ac8c7c3b925",
            "0x000000000000000000000000c00eaeaab46d7a78086113f881dc933730b8faab",
            "0x000000000000000000000000e03a1074c86cfedd5c142c4f04f1a1536e203543"
          ],
          "data": "0xffffffffffffffffffffffffffffffffffffffffffffffffffffffffffffffff",
          "blockHash": "0xca3e43e53449a9bd79f01de861b4536bd9c91d63db2461ffda416d72e2571134",
          "blockNumber": "0x9ff067",
          "blockTimestamp": "0x69bcdb4c",
          "transactionHash": "0x6a39a6af0489807e9bc83bf3ee8bb16976a381ea51e64a127541c72984f5d5c2",
          "transactionIndex": "0x57",
          "logIndex": "0xbf",
          "removed": false
        },
        {
          "address": "0xe03a1074c86cfedd5c142c4f04f1a1536e203543",
          "topics": [
            "0x40e9cecb9f5f1f1c5b9c97dec2917b7ee92e57ba5563708daca94dd84ad7112f",
            "0x9fd0796ea90a3acab268f569ff640b005d85a5096de8360a9417b3fa320aa0c6",
            "0x000000000000000000000000c00eaeaab46d7a78086113f881dc933730b8faab"
          ],
          "data": "0xfffffffffffffffffffffffffffffffffffffffffffffffffffffffffff0bdc000000000000000000000000000000000000000000000000000000000000f33e50000000000000000000000000000000000000000ff50934fcc67bab726c538d900000000000000000000000000000000000000000000000000000000162f8311ffffffffffffffffffffffffffffffffffffffffffffffffffffffffffffffca00000000000000000000000000000000000000000000000000000000000003e8",
          "blockHash": "0xca3e43e53449a9bd79f01de861b4536bd9c91d63db2461ffda416d72e2571134",
          "blockNumber": "0x9ff067",
          "blockTimestamp": "0x69bcdb4c",
          "transactionHash": "0x6a39a6af0489807e9bc83bf3ee8bb16976a381ea51e64a127541c72984f5d5c2",
          "transactionIndex": "0x57",
          "logIndex": "0xc0",
          "removed": false
        },
        {
          "address": "0x1c7d4b196cb0c7b01d743fbc6116a902379c7238",
          "topics": [
            "0xddf252ad1be2c89b69c2b068fc378daa952ba7f163c4a11628f55a4df523b3ef",
            "0x000000000000000000000000c00eaeaab46d7a78086113f881dc933730b8faab",
            "0x000000000000000000000000e03a1074c86cfedd5c142c4f04f1a1536e203543"
          ],
          "data": "0x00000000000000000000000000000000000000000000000000000000000f4240",
          "blockHash": "0xca3e43e53449a9bd79f01de861b4536bd9c91d63db2461ffda416d72e2571134",
          "blockNumber": "0x9ff067",
          "blockTimestamp": "0x69bcdb4c",
          "transactionHash": "0x6a39a6af0489807e9bc83bf3ee8bb16976a381ea51e64a127541c72984f5d5c2",
          "transactionIndex": "0x57",
          "logIndex": "0xc1",
          "removed": false
        },
        {
          "address": "0x3428fb59fa75e14a1ba6d33161fa69545f8b54af",
          "topics": [
            "0xddf252ad1be2c89b69c2b068fc378daa952ba7f163c4a11628f55a4df523b3ef",
            "0x000000000000000000000000e03a1074c86cfedd5c142c4f04f1a1536e203543",
            "0x000000000000000000000000667c1abd4e25be048b8217f90fc576780cca8218"
          ],
          "data": "0x00000000000000000000000000000000000000000000000000000000000f33e5",
          "blockHash": "0xca3e43e53449a9bd79f01de861b4536bd9c91d63db2461ffda416d72e2571134",
          "blockNumber": "0x9ff067",
          "blockTimestamp": "0x69bcdb4c",
          "transactionHash": "0x6a39a6af0489807e9bc83bf3ee8bb16976a381ea51e64a127541c72984f5d5c2",
          "transactionIndex": "0x57",
          "logIndex": "0xc2",
          "removed": false
        }
      ],
      "logsBloom": "0x0000000000000000000200000000008000000000000200000000000000020000000000000000000000000000000000000000010005000000000000000020000000000000000800000000008800000000000000000000002000000000000000000000000000000000000000008000000000000000000010000000001000000000000000000010200000001000000800000000001000000000000000000000000002000000000000000000000000000000000000000000000000000000000000000000000200000000000000000000000000000000000120000000100000000000101000000000000000c010000000000000000000000000000000000000000000",
      "type": "0x2",
      "transactionHash": "0x6a39a6af0489807e9bc83bf3ee8bb16976a381ea51e64a127541c72984f5d5c2",
      "transactionIndex": "0x57",
      "blockHash": "0xca3e43e53449a9bd79f01de861b4536bd9c91d63db2461ffda416d72e2571134",
      "blockNumber": "0x9ff067",
      "gasUsed": "0x315b8",
      "effectiveGasPrice": "0xf424a",
      "from": "0x667c1abd4e25be048b8217f90fc576780cca8218",
      "to": "0xc00eaeaab46d7a78086113f881dc933730b8faab",
      "contractAddress": null
    }
  ],
  "libraries": [],
  "pending": [],
  "returns": {},
  "timestamp": 1773984588775,
  "chain": 11155111,
  "commit": "232ed5d"
}