{
  "transactions": [
    {
      "hash": "0xa243337c8a12e34f25ada289492f718ec0a24e6fd7b8e9674e4d5cca4fcbafbd",
      "transactionType": "CALL",
      "contractName": null,
      "contractAddress": "0xe03a1074c86cfedd5c142c4f04f1a1536e203543",
      "function": "initialize((address,address,uint24,int24,address),uint160)",
      "arguments": [
        "(0x1c7D4B196Cb0C7B01d743Fbc6116a902379C7238, 0x3428Fb59Fa75E14A1ba6d33161FA69545f8B54aF, 8388608, 60, 0x7bDc5E441da38E15D7C0911acF96A04FB67624Ce)",
        "79228162514264337593543950336"
      ],
      "transaction": {
        "from": "0x667c1abd4e25be048b8217f90fc576780cca8218",
        "to": "0xe03a1074c86cfedd5c142c4f04f1a1536e203543",
        "gas": "0x1301f",
        "value": "0x0",
        "input": "0x6276cbbe0000000000000000000000001c7d4b196cb0c7b01d743fbc6116a902379c72380000000000000000000000003428fb59fa75e14a1ba6d33161fa69545f8b54af0000000000000000000000000000000000000000000000000000000000800000000000000000000000000000000000000000000000000000000000000000003c0000000000000000000000007bdc5e441da38e15d7c0911acf96a04fb67624ce0000000000000000000000000000000000000001000000000000000000000000",
        "nonce": "0x2b4",
        "chainId": "0xaa36a7"
      },
      "additionalContracts": [],
      "isFixedGasLimit": false
    }
  ],
  "receipts": [
    {
      "status": "0x1",
      "cumulativeGasUsed": "0xa7d27f",
      "logs": [
        {
          "address": "0xe03a1074c86cfedd5c142c4f04f1a1536e203543",
          "topics": [
            "0xdd466e674ea557f56295e2d0218a125ea4b4f0f6f3307b95f85e6110838d6438",
            "0x9fd0796ea90a3acab268f569ff640b005d85a5096de8360a9417b3fa320aa0c6",
            "0x0000000000000000000000001c7d4b196cb0c7b01d743fbc6116a902379c7238",
            "0x0000000000000000000000003428fb59fa75e14a1ba6d33161fa69545f8b54af"
          ],
          "data": "0x0000000000000000000000000000000000000000000000000000000000800000000000000000000000000000000000000000000000000000000000000000003c0000000000000000000000007bdc5e441da38e15d7c0911acf96a04fb67624ce00000000000000000000000000000000000000010000000000000000000000000000000000000000000000000000000000000000000000000000000000000000",
          "blockHash": "0xf4d4ee6233bfa8d59bb785be0526ce601ff2cd08d3eceeef8bb90800a378e03e",
          "blockNumber": "0x9fe8ce",
          "blockTimestamp": "0x69bc7e34",
          "transactionHash": "0xa243337c8a12e34f25ada289492f718ec0a24e6fd7b8e9674e4d5cca4fcbafbd",
          "transactionIndex": "0x4d",
          "logIndex": "0x79",
          "removed": false
        }
      ],
      "logsBloom": "0x00100000000000000000000000000080000000000000000000000000000000000000000000000000000000000000000000000100000004000000000000000000100000000000000000000000000000000000000000000000000000000000000000000020000000000000000000000000000000000000100000000000000000000000000000002008000000000000000040000011000000000000000000200000000000000000000000000000000000000000008000000000000000000000000000000000000000000000000000000000000000000000000000000000000000001000000000000000000000000000000000000000000000000000000000000000",
      "type": "0x2",
      "transactionHash": "0xa243337c8a12e34f25ada289492f718ec0a24e6fd7b8e9674e4d5cca4fcbafbd",
      "transactionIndex": "0x4d",
      "blockHash": "0xf4d4ee6233bfa8d59bb785be0526ce601ff2cd08d3eceeef8bb90800a378e03e",
      "blockNumber": "0x9fe8ce",
      "gasUsed": "0xdc2f",
      "effectiveGasPrice": "0xf424a",
      "from": "0x667c1abd4e25be048b8217f90fc576780cca8218",
      "to": "0xe03a1074c86cfedd5c142c4f04f1a1536e203543",
      "contractAddress": null
    }
  ],
  "libraries": [],
  "pending": [],
  "returns": {},
  "timestamp": 1773960755944,
  "chain": 11155111,
  "commit": "232ed5d"
}