{
  "transactions": [
    {
      "hash": "0xa8f154c96d6a1a984e763ed68e41f9e71d8d6b2f4531441cec215a0159cd208d",
      "transactionType": "CALL",
      "contractName": null,
      "contractAddress": "0xe03a1074c86cfedd5c142c4f04f1a1536e203543",
      "function": "initialize((address,address,uint24,int24,address),uint160)",
      "arguments": [
        "(0x1c7D4B196Cb0C7B01d743Fbc6116a902379C7238, 0x3428Fb59Fa75E14A1ba6d33161FA69545f8B54aF, 8388608, 60, 0x855b0881580CAEeD3711CfB6f2F1704F8B6124Ce)",
        "79228162514264337593543950336"
      ],
      "transaction": {
        "from": "0x667c1abd4e25be048b8217f90fc576780cca8218",
        "to": "0xe03a1074c86cfedd5c142c4f04f1a1536e203543",
        "gas": "0x141e4",
        "value": "0x0",
        "input": "0x6276cbbe0000000000000000000000001c7d4b196cb0c7b01d743fbc6116a902379c72380000000000000000000000003428fb59fa75e14a1ba6d33161fa69545f8b54af0000000000000000000000000000000000000000000000000000000000800000000000000000000000000000000000000000000000000000000000000000003c000000000000000000000000855b0881580caeed3711cfb6f2f1704f8b6124ce0000000000000000000000000000000000000001000000000000000000000000",
        "nonce": "0x2fb",
        "chainId": "0xaa36a7"
      },
      "additionalContracts": [],
      "isFixedGasLimit": false
    }
  ],
  "receipts": [
    {
      "status": "0x1",
      "cumulativeGasUsed": "0xcd1077",
      "logs": [
        {
          "address": "0xe03a1074c86cfedd5c142c4f04f1a1536e203543",
          "topics": [
            "0xdd466e674ea557f56295e2d0218a125ea4b4f0f6f3307b95f85e6110838d6438",
            "0x34d7ca7a4bd13703d43d13161f15c59448806e42a02771c7f4de6a459250f9f2",
            "0x0000000000000000000000001c7d4b196cb0c7b01d743fbc6116a902379c7238",
            "0x0000000000000000000000003428fb59fa75e14a1ba6d33161fa69545f8b54af"
          ],
          "data": "0x0000000000000000000000000000000000000000000000000000000000800000000000000000000000000000000000000000000000000000000000000000003c000000000000000000000000855b0881580caeed3711cfb6f2f1704f8b6124ce00000000000000000000000000000000000000010000000000000000000000000000000000000000000000000000000000000000000000000000000000000000",
          "blockHash": "0xe26811602832e9d54052e376c1a9fed73f7cd75a6f5da85f245dbc9e52d63023",
          "blockNumber": "0x9ff131",
          "blockTimestamp": "0x69bce4f4",
          "transactionHash": "0xa8f154c96d6a1a984e763ed68e41f9e71d8d6b2f4531441cec215a0159cd208d",
          "transactionIndex": "0x63",
          "logIndex": "0x127",
          "removed": false
        }
      ],
      "logsBloom": "0x00100000000000000000000000000000000000000000000000000000000000000000000000000000000000000000000000000100000004000000000000000000100000000000000000000000000000000000000000000000000000000000000000000020000000000000000000000000000000000000100000000000000000000000000000000008000000000000000040010001000000000000000000200000000000000000000000000000000000002000008000000000000000000000000000000000000000000000000200000000000000000000000000000000000000001000000000000000000000000000000000000000000000000000000000000000",
      "type": "0x2",
      "transactionHash": "0xa8f154c96d6a1a984e763ed68e41f9e71d8d6b2f4531441cec215a0159cd208d",
      "transactionIndex": "0x63",
      "blockHash": "0xe26811602832e9d54052e376c1a9fed73f7cd75a6f5da85f245dbc9e52d63023",
      "blockNumber": "0x9ff131",
      "gasUsed": "0xdc19",
      "effectiveGasPrice": "0xf424b",
      "from": "0x667c1abd4e25be048b8217f90fc576780cca8218",
      "to": "0xe03a1074c86cfedd5c142c4f04f1a1536e203543",
      "contractAddress": null
    }
  ],
  "libraries": [],
  "pending": [],
  "returns": {},
  "timestamp": 1773987061045,
  "chain": 11155111,
  "commit": "232ed5d"
}