{
  "transactions": [
    {
      "hash": "0x0455e33fe9daca7e2b037b6f8af6033074e6c3c9b8d2813c4bf221820b5ce329",
      "transactionType": "CALL",
      "contractName": null,
      "contractAddress": "0x855b0881580caeed3711cfb6f2f1704f8b6124ce",
      "function": "setReceiverForDestinationChain(uint64,address)",
      "arguments": [
        "14767482510784806043",
        "0x607717140Bc2Ef8d28dEAa35Ab412Db151719E89"
      ],
      "transaction": {
        "from": "0x667c1abd4e25be048b8217f90fc576780cca8218",
        "to": "0x855b0881580caeed3711cfb6f2f1704f8b6124ce",
        "gas": "0x9216",
        "value": "0x0",
        "input": "0x3f3b7a6f000000000000000000000000000000000000000000000000ccf0a31a221f3c9b000000000000000000000000607717140bc2ef8d28deaa35ab412db151719e89",
        "nonce": "0x2f9",
        "chainId": "0xaa36a7"
      },
      "additionalContracts": [],
      "isFixedGasLimit": false
    },
    {
      "hash": "0xc076b7e1b5f066ebad2341ce24f9df7fea47ed65d8feea66a12d81bdb2a02e43",
      "transactionType": "CALL",
      "contractName": null,
      "contractAddress": "0x855b0881580caeed3711cfb6f2f1704f8b6124ce",
      "function": "setGasLimitForDestinationChain(uint64,uint256)",
      "arguments": [
        "14767482510784806043",
        "20000"
      ],
      "transaction": {
        "from": "0x667c1abd4e25be048b8217f90fc576780cca8218",
        "to": "0x855b0881580caeed3711cfb6f2f1704f8b6124ce",
        "gas": "0x9014",
        "value": "0x0",
        "input": "0x5dc2594e000000000000000000000000000000000000000000000000ccf0a31a221f3c9b0000000000000000000000000000000000000000000000000000000000004e20",
        "nonce": "0x2fa",
        "chainId": "0xaa36a7"
      },
      "additionalContracts": [],
      "isFixedGasLimit": false
    }
  ],
  "receipts": [
    {
      "status": "0x1",
      "cumulativeGasUsed": "0xa20449",
      "logs": [],
      "logsBloom": "0x00000000000000000000000000000000000000000000000000000000000000000000000000000000000000000000000000000000000000000000000000000000000000000000000000000000000000000000000000000000000000000000000000000000000000000000000000000000000000000000000000000000000000000000000000000000000000000000000000000000000000000000000000000000000000000000000000000000000000000000000000000000000000000000000000000000000000000000000000000000000000000000000000000000000000000000000000000000000000000000000000000000000000000000000000000000",
      "type": "0x2",
      "transactionHash": "0xc076b7e1b5f066ebad2341ce24f9df7fea47ed65d8feea66a12d81bdb2a02e43",
      "transactionIndex": "0x47",
      "blockHash": "0x0dc29504850b0127e3bab9b15a257d9e1d00aa1a33793bf90e9644e91c880dfb",
      "blockNumber": "0x9ff12f",
      "gasUsed": "0x69c4",
      "effectiveGasPrice": "0xf424b",
      "from": "0x667c1abd4e25be048b8217f90fc576780cca8218",
      "to": "0x855b0881580caeed3711cfb6f2f1704f8b6124ce",
      "contractAddress": null
    },
    {
      "status": "0x1",
      "cumulativeGasUsed": "0xa26c99",
      "logs": [],
      "logsBloom": "0x00000000000000000000000000000000000000000000000000000000000000000000000000000000000000000000000000000000000000000000000000000000000000000000000000000000000000000000000000000000000000000000000000000000000000000000000000000000000000000000000000000000000000000000000000000000000000000000000000000000000000000000000000000000000000000000000000000000000000000000000000000000000000000000000000000000000000000000000000000000000000000000000000000000000000000000000000000000000000000000000000000000000000000000000000000000",
      "type": "0x2",
      "transactionHash": "0x0455e33fe9daca7e2b037b6f8af6033074e6c3c9b8d2813c4bf221820b5ce329",
      "transactionIndex": "0x48",
      "blockHash": "0x0dc29504850b0127e3bab9b15a257d9e1d00aa1a33793bf90e9644e91c880dfb",
      "blockNumber": "0x9ff12f",
      "gasUsed": "0x6850",
      "effectiveGasPrice": "0xf424b",
      "from": "0x667c1abd4e25be048b8217f90fc576780cca8218",
      "to": "0x855b0881580caeed3711cfb6f2f1704f8b6124ce",
      "contractAddress": null
    }
  ],
  "libraries": [],
  "pending": [],
  "returns": {},
  "timestamp": 1773987037476,
  "chain": 11155111,
  "commit": "232ed5d"
}