{
  "transactions": [
    {
      "hash": "0x992b840c6202ab886992d2ede54412c7b09443c8c889ed5ea1d502d9e895435a",
      "transactionType": "CALL",
      "contractName": null,
      "contractAddress": "0x5c9da3256389531d5693a002b91e16032056a4ce",
      "function": "setReceiverForDestinationChain(uint64,address)",
      "arguments": [
        "14135854469784514356",
        "0x767de5eBB6097Bcdec78C24ee417Dc6112B2B35D"
      ],
      "transaction": {
        "from": "0x667c1abd4e25be048b8217f90fc576780cca8218",
        "to": "0x5c9da3256389531d5693a002b91e16032056a4ce",
        "gas": "0x10c3d",
        "value": "0x0",
        "input": "0x3f3b7a6f000000000000000000000000000000000000000000000000c42ca4becc1faf34000000000000000000000000767de5ebb6097bcdec78c24ee417dc6112b2b35d",
        "nonce": "0x290",
        "chainId": "0xaa36a7"
      },
      "additionalContracts": [],
      "isFixedGasLimit": false
    },
    {
      "hash": "0x60a09db2472c6ab5a0b5c1c4b1a5d26d91c07a3dc82a3930bf202b7b38f6b256",
      "transactionType": "CALL",
      "contractName": null,
      "contractAddress": "0x5c9da3256389531d5693a002b91e16032056a4ce",
      "function": "setGasLimitForDestinationChain(uint64,uint256)",
      "arguments": [
        "14135854469784514356",
        "20000"
      ],
      "transaction": {
        "from": "0x667c1abd4e25be048b8217f90fc576780cca8218",
        "to": "0x5c9da3256389531d5693a002b91e16032056a4ce",
        "gas": "0xfb54",
        "value": "0x0",
        "input": "0x5dc2594e000000000000000000000000000000000000000000000000c42ca4becc1faf340000000000000000000000000000000000000000000000000000000000004e20",
        "nonce": "0x291",
        "chainId": "0xaa36a7"
      },
      "additionalContracts": [],
      "isFixedGasLimit": false
    }
  ],
  "receipts": [
    {
      "status": "0x1",
      "cumulativeGasUsed": "0xc9cdd6",
      "logs": [],
      "logsBloom": "0x00000000000000000000000000000000000000000000000000000000000000000000000000000000000000000000000000000000000000000000000000000000000000000000000000000000000000000000000000000000000000000000000000000000000000000000000000000000000000000000000000000000000000000000000000000000000000000000000000000000000000000000000000000000000000000000000000000000000000000000000000000000000000000000000000000000000000000000000000000000000000000000000000000000000000000000000000000000000000000000000000000000000000000000000000000000",
      "type": "0x2",
      "transactionHash": "0x60a09db2472c6ab5a0b5c1c4b1a5d26d91c07a3dc82a3930bf202b7b38f6b256",
      "transactionIndex": "0x53",
      "blockHash": "0x867d176216ce821624652cc6b9fee05e07b5444556307c5eaed8ad2d0d7da8e6",
      "blockNumber": "0x9fe27c",
      "gasUsed": "0xb76a",
      "effectiveGasPrice": "0xf424a",
      "from": "0x667c1abd4e25be048b8217f90fc576780cca8218",
      "to": "0x5c9da3256389531d5693a002b91e16032056a4ce",
      "contractAddress": null
    },
    {
      "status": "0x1",
      "cumulativeGasUsed": "0xca83cc",
      "logs": [],
      "logsBloom": "0x00000000000000000000000000000000000000000000000000000000000000000000000000000000000000000000000000000000000000000000000000000000000000000000000000000000000000000000000000000000000000000000000000000000000000000000000000000000000000000000000000000000000000000000000000000000000000000000000000000000000000000000000000000000000000000000000000000000000000000000000000000000000000000000000000000000000000000000000000000000000000000000000000000000000000000000000000000000000000000000000000000000000000000000000000000000",
      "type": "0x2",
      "transactionHash": "0x992b840c6202ab886992d2ede54412c7b09443c8c889ed5ea1d502d9e895435a",
      "transactionIndex": "0x54",
      "blockHash": "0x867d176216ce821624652cc6b9fee05e07b5444556307c5eaed8ad2d0d7da8e6",
      "blockNumber": "0x9fe27c",
      "gasUsed": "0xb5f6",
      "effectiveGasPrice": "0xf424a",
      "from": "0x667c1abd4e25be048b8217f90fc576780cca8218",
      "to": "0x5c9da3256389531d5693a002b91e16032056a4ce",
      "contractAddress": null
    }
  ],
  "libraries": [],
  "pending": [],
  "returns": {},
  "timestamp": 1773940765108,
  "chain": 11155111,
  "commit": "ea7f5a8"
}