{
  "transactions": [
    {
      "hash": "0x24e68d285a3a99f83eddec394cc8e7165904fd26cdeee64591af3032604338fe",
      "transactionType": "CALL",
      "contractName": null,
      "contractAddress": "0x7bdc5e441da38e15d7c0911acf96a04fb67624ce",
      "function": "setReceiverForDestinationChain(uint64,address)",
      "arguments": [
        "14135854469784514356",
        "0x0266A43006E3B8eF324e79228de2A48b3a8b631C"
      ],
      "transaction": {
        "from": "0x667c1abd4e25be048b8217f90fc576780cca8218",
        "to": "0x7bdc5e441da38e15d7c0911acf96a04fb67624ce",
        "gas": "0x10c3d",
        "value": "0x0",
        "input": "0x3f3b7a6f000000000000000000000000000000000000000000000000c42ca4becc1faf340000000000000000000000000266a43006e3b8ef324e79228de2a48b3a8b631c",
        "nonce": "0x2a3",
        "chainId": "0xaa36a7"
      },
      "additionalContracts": [],
      "isFixedGasLimit": false
    },
    {
      "hash": "0x394563eb02087ee36f1d5c48803a4b43bcf39d674ebd4bca65eb012d810f9b58",
      "transactionType": "CALL",
      "contractName": null,
      "contractAddress": "0x7bdc5e441da38e15d7c0911acf96a04fb67624ce",
      "function": "setGasLimitForDestinationChain(uint64,uint256)",
      "arguments": [
        "14135854469784514356",
        "20000"
      ],
      "transaction": {
        "from": "0x667c1abd4e25be048b8217f90fc576780cca8218",
        "to": "0x7bdc5e441da38e15d7c0911acf96a04fb67624ce",
        "gas": "0xfb54",
        "value": "0x0",
        "input": "0x5dc2594e000000000000000000000000000000000000000000000000c42ca4becc1faf340000000000000000000000000000000000000000000000000000000000004e20",
        "nonce": "0x2a4",
        "chainId": "0xaa36a7"
      },
      "additionalContracts": [],
      "isFixedGasLimit": false
    }
  ],
  "receipts": [
    {
      "status": "0x1",
      "cumulativeGasUsed": "0x1012dd2",
      "logs": [],
      "logsBloom": "0x00000000000000000000000000000000000000000000000000000000000000000000000000000000000000000000000000000000000000000000000000000000000000000000000000000000000000000000000000000000000000000000000000000000000000000000000000000000000000000000000000000000000000000000000000000000000000000000000000000000000000000000000000000000000000000000000000000000000000000000000000000000000000000000000000000000000000000000000000000000000000000000000000000000000000000000000000000000000000000000000000000000000000000000000000000000",
      "type": "0x2",
      "transactionHash": "0x394563eb02087ee36f1d5c48803a4b43bcf39d674ebd4bca65eb012d810f9b58",
      "transactionIndex": "0x58",
      "blockHash": "0x9a73bc838c686cb03399a503afd27d5f6fd9c742171aa01f9f9dbddc0c1e6c62",
      "blockNumber": "0x9fe639",
      "gasUsed": "0xb76a",
      "effectiveGasPrice": "0xf424a",
      "from": "0x667c1abd4e25be048b8217f90fc576780cca8218",
      "to": "0x7bdc5e441da38e15d7c0911acf96a04fb67624ce",
      "contractAddress": null
    },
    {
      "status": "0x1",
      "cumulativeGasUsed": "0x101e3c8",
      "logs": [],
      "logsBloom": "0x00000000000000000000000000000000000000000000000000000000000000000000000000000000000000000000000000000000000000000000000000000000000000000000000000000000000000000000000000000000000000000000000000000000000000000000000000000000000000000000000000000000000000000000000000000000000000000000000000000000000000000000000000000000000000000000000000000000000000000000000000000000000000000000000000000000000000000000000000000000000000000000000000000000000000000000000000000000000000000000000000000000000000000000000000000000",
      "type": "0x2",
      "transactionHash": "0x24e68d285a3a99f83eddec394cc8e7165904fd26cdeee64591af3032604338fe",
      "transactionIndex": "0x59",
      "blockHash": "0x9a73bc838c686cb03399a503afd27d5f6fd9c742171aa01f9f9dbddc0c1e6c62",
      "blockNumber": "0x9fe639",
      "gasUsed": "0xb5f6",
      "effectiveGasPrice": "0xf424a",
      "from": "0x667c1abd4e25be048b8217f90fc576780cca8218",
      "to": "0x7bdc5e441da38e15d7c0911acf96a04fb67624ce",
      "contractAddress": null
    }
  ],
  "libraries": [],
  "pending": [],
  "returns": {},
  "timestamp": 1773952632580,
  "chain": 11155111,
  "commit": "ea7f5a8"
}