{
  "transactions": [
    {
      "hash": "0x65099280cb5652064ee827ccc1e9eca711e38c39fbee110ff421730e0e81d9d6",
      "transactionType": "CALL",
      "contractName": null,
      "contractAddress": "0xa5abba48226d1b2499d7d8fc053bae715dfde4ce",
      "function": "setReceiverForDestinationChain(uint64,address)",
      "arguments": [
        "14135854469784514356",
        "0x36Cdc9011691CCEE3395e8Adc10d686c3B31a6AA"
      ],
      "transaction": {
        "from": "0x667c1abd4e25be048b8217f90fc576780cca8218",
        "to": "0xa5abba48226d1b2499d7d8fc053bae715dfde4ce",
        "gas": "0x10c3d",
        "value": "0x0",
        "input": "0x3f3b7a6f000000000000000000000000000000000000000000000000c42ca4becc1faf3400000000000000000000000036cdc9011691ccee3395e8adc10d686c3b31a6aa",
        "nonce": "0x25a",
        "chainId": "0xaa36a7"
      },
      "additionalContracts": [],
      "isFixedGasLimit": false
    },
    {
      "hash": "0x4267defd7b26721d0c7118e929edfb16f072d62bf7befa8eb3833e0851c6cf3d",
      "transactionType": "CALL",
      "contractName": null,
      "contractAddress": "0xa5abba48226d1b2499d7d8fc053bae715dfde4ce",
      "function": "setGasLimitForDestinationChain(uint64,uint256)",
      "arguments": [
        "14135854469784514356",
        "20000"
      ],
      "transaction": {
        "from": "0x667c1abd4e25be048b8217f90fc576780cca8218",
        "to": "0xa5abba48226d1b2499d7d8fc053bae715dfde4ce",
        "gas": "0xfb54",
        "value": "0x0",
        "input": "0x5dc2594e000000000000000000000000000000000000000000000000c42ca4becc1faf340000000000000000000000000000000000000000000000000000000000004e20",
        "nonce": "0x25b",
        "chainId": "0xaa36a7"
      },
      "additionalContracts": [],
      "isFixedGasLimit": false
    }
  ],
  "receipts": [
    {
      "status": "0x1",
      "cumulativeGasUsed": "0x113e119",
      "logs": [],
      "logsBloom": "0x00000000000000000000000000000000000000000000000000000000000000000000000000000000000000000000000000000000000000000000000000000000000000000000000000000000000000000000000000000000000000000000000000000000000000000000000000000000000000000000000000000000000000000000000000000000000000000000000000000000000000000000000000000000000000000000000000000000000000000000000000000000000000000000000000000000000000000000000000000000000000000000000000000000000000000000000000000000000000000000000000000000000000000000000000000000",
      "type": "0x2",
      "transactionHash": "0x65099280cb5652064ee827ccc1e9eca711e38c39fbee110ff421730e0e81d9d6",
      "transactionIndex": "0x62",
      "blockHash": "0x561d174a725ac8e0ad87b1e1355275db0c2b5d3d305533d2417263ab1e2dc254",
      "blockNumber": "0x9fdc86",
      "gasUsed": "0xb76a",
      "effectiveGasPrice": "0xf424c",
      "from": "0x667c1abd4e25be048b8217f90fc576780cca8218",
      "to": "0xa5abba48226d1b2499d7d8fc053bae715dfde4ce",
      "contractAddress": null
    },
    {
      "status": "0x1",
      "cumulativeGasUsed": "0x114970f",
      "logs": [],
      "logsBloom": "0x00000000000000000000000000000000000000000000000000000000000000000000000000000000000000000000000000000000000000000000000000000000000000000000000000000000000000000000000000000000000000000000000000000000000000000000000000000000000000000000000000000000000000000000000000000000000000000000000000000000000000000000000000000000000000000000000000000000000000000000000000000000000000000000000000000000000000000000000000000000000000000000000000000000000000000000000000000000000000000000000000000000000000000000000000000000",
      "type": "0x2",
      "transactionHash": "0x4267defd7b26721d0c7118e929edfb16f072d62bf7befa8eb3833e0851c6cf3d",
      "transactionIndex": "0x63",
      "blockHash": "0x561d174a725ac8e0ad87b1e1355275db0c2b5d3d305533d2417263ab1e2dc254",
      "blockNumber": "0x9fdc86",
      "gasUsed": "0xb5f6",
      "effectiveGasPrice": "0xf424c",
      "from": "0x667c1abd4e25be048b8217f90fc576780cca8218",
      "to": "0xa5abba48226d1b2499d7d8fc053bae715dfde4ce",
      "contractAddress": null
    }
  ],
  "libraries": [],
  "pending": [],
  "returns": {},
  "timestamp": 1773921720817,
  "chain": 11155111,
  "commit": "ea7f5a8"
}