{
  "transactions": [
    {
      "hash": "0x036644355db6c313daf7164b5dec580f79de15a17e74b94079597157fecabfae",
      "transactionType": "CALL",
      "contractName": null,
      "contractAddress": "0x7638eed4ad393b9f30481ae5fe65e86e8f4724ce",
      "function": "setReceiverForDestinationChain(uint64,address)",
      "arguments": [
        "14135854469784514356",
        "0xe48843b32b1F6600B368212679c676290100C92e"
      ],
      "transaction": {
        "from": "0x667c1abd4e25be048b8217f90fc576780cca8218",
        "to": "0x7638eed4ad393b9f30481ae5fe65e86e8f4724ce",
        "gas": "0x10c1a",
        "value": "0x0",
        "input": "0x3f3b7a6f000000000000000000000000000000000000000000000000c42ca4becc1faf34000000000000000000000000e48843b32b1f6600b368212679c676290100c92e",
        "nonce": "0x274",
        "chainId": "0xaa36a7"
      },
      "additionalContracts": [],
      "isFixedGasLimit": false
    },
    {
      "hash": "0x40d270525bbf78a1fedae7adddf110a468bff4ffc141dd44c993c606a1fc5986",
      "transactionType": "CALL",
      "contractName": null,
      "contractAddress": "0x7638eed4ad393b9f30481ae5fe65e86e8f4724ce",
      "function": "setGasLimitForDestinationChain(uint64,uint256)",
      "arguments": [
        "14135854469784514356",
        "20000"
      ],
      "transaction": {
        "from": "0x667c1abd4e25be048b8217f90fc576780cca8218",
        "to": "0x7638eed4ad393b9f30481ae5fe65e86e8f4724ce",
        "gas": "0xfb54",
        "value": "0x0",
        "input": "0x5dc2594e000000000000000000000000000000000000000000000000c42ca4becc1faf340000000000000000000000000000000000000000000000000000000000004e20",
        "nonce": "0x275",
        "chainId": "0xaa36a7"
      },
      "additionalContracts": [],
      "isFixedGasLimit": false
    }
  ],
  "receipts": [
    {
      "status": "0x1",
      "cumulativeGasUsed": "0x936366",
      "logs": [],
      "logsBloom": "0x00000000000000000000000000000000000000000000000000000000000000000000000000000000000000000000000000000000000000000000000000000000000000000000000000000000000000000000000000000000000000000000000000000000000000000000000000000000000000000000000000000000000000000000000000000000000000000000000000000000000000000000000000000000000000000000000000000000000000000000000000000000000000000000000000000000000000000000000000000000000000000000000000000000000000000000000000000000000000000000000000000000000000000000000000000000",
      "type": "0x2",
      "transactionHash": "0x40d270525bbf78a1fedae7adddf110a468bff4ffc141dd44c993c606a1fc5986",
      "transactionIndex": "0x6c",
      "blockHash": "0x377ccc33d0344fbe4b6db4012c29d8f6a8f81fb0fcfd2b79ea3026b4b8bd98d1",
      "blockNumber": "0x9fe086",
      "gasUsed": "0xb752",
      "effectiveGasPrice": "0xf424a",
      "from": "0x667c1abd4e25be048b8217f90fc576780cca8218",
      "to": "0x7638eed4ad393b9f30481ae5fe65e86e8f4724ce",
      "contractAddress": null
    },
    {
      "status": "0x1",
      "cumulativeGasUsed": "0x94195c",
      "logs": [],
      "logsBloom": "0x00000000000000000000000000000000000000000000000000000000000000000000000000000000000000000000000000000000000000000000000000000000000000000000000000000000000000000000000000000000000000000000000000000000000000000000000000000000000000000000000000000000000000000000000000000000000000000000000000000000000000000000000000000000000000000000000000000000000000000000000000000000000000000000000000000000000000000000000000000000000000000000000000000000000000000000000000000000000000000000000000000000000000000000000000000000",
      "type": "0x2",
      "transactionHash": "0x036644355db6c313daf7164b5dec580f79de15a17e74b94079597157fecabfae",
      "transactionIndex": "0x6d",
      "blockHash": "0x377ccc33d0344fbe4b6db4012c29d8f6a8f81fb0fcfd2b79ea3026b4b8bd98d1",
      "blockNumber": "0x9fe086",
      "gasUsed": "0xb5f6",
      "effectiveGasPrice": "0xf424a",
      "from": "0x667c1abd4e25be048b8217f90fc576780cca8218",
      "to": "0x7638eed4ad393b9f30481ae5fe65e86e8f4724ce",
      "contractAddress": null
    }
  ],
  "libraries": [],
  "pending": [],
  "returns": {},
  "timestamp": 1773934488761,
  "chain": 11155111,
  "commit": "ea7f5a8"
}