{
  "transactions": [
    {
      "hash": "0xab688902e964c12a37cece3b00e546b0c1f6c542592ab2d441f58bee1717abec",
      "transactionType": "CALL",
      "contractName": null,
      "contractAddress": "0x89cf3ad58b37b35337859ff1939b84a831e264ce",
      "function": "setReceiverForDestinationChain(uint64,address)",
      "arguments": [
        "14135854469784514356",
        "0x5B17b78e34954A760D293655bAF440C817080C3E"
      ],
      "transaction": {
        "from": "0x667c1abd4e25be048b8217f90fc576780cca8218",
        "to": "0x89cf3ad58b37b35337859ff1939b84a831e264ce",
        "gas": "0x10c3d",
        "value": "0x0",
        "input": "0x3f3b7a6f000000000000000000000000000000000000000000000000c42ca4becc1faf340000000000000000000000005b17b78e34954a760d293655baf440c817080c3e",
        "nonce": "0x26f",
        "chainId": "0xaa36a7"
      },
      "additionalContracts": [],
      "isFixedGasLimit": false
    },
    {
      "hash": "0x014571de5c4c11b92086fbaef9b4ef61202612d648a12485c9f1244e793551d7",
      "transactionType": "CALL",
      "contractName": null,
      "contractAddress": "0x89cf3ad58b37b35337859ff1939b84a831e264ce",
      "function": "setGasLimitForDestinationChain(uint64,uint256)",
      "arguments": [
        "14135854469784514356",
        "20000"
      ],
      "transaction": {
        "from": "0x667c1abd4e25be048b8217f90fc576780cca8218",
        "to": "0x89cf3ad58b37b35337859ff1939b84a831e264ce",
        "gas": "0xfb54",
        "value": "0x0",
        "input": "0x5dc2594e000000000000000000000000000000000000000000000000c42ca4becc1faf340000000000000000000000000000000000000000000000000000000000004e20",
        "nonce": "0x270",
        "chainId": "0xaa36a7"
      },
      "additionalContracts": [],
      "isFixedGasLimit": false
    }
  ],
  "receipts": [
    {
      "status": "0x1",
      "cumulativeGasUsed": "0x9e6daa",
      "logs": [],
      "logsBloom": "0x00000000000000000000000000000000000000000000000000000000000000000000000000000000000000000000000000000000000000000000000000000000000000000000000000000000000000000000000000000000000000000000000000000000000000000000000000000000000000000000000000000000000000000000000000000000000000000000000000000000000000000000000000000000000000000000000000000000000000000000000000000000000000000000000000000000000000000000000000000000000000000000000000000000000000000000000000000000000000000000000000000000000000000000000000000000",
      "type": "0x2",
      "transactionHash": "0x014571de5c4c11b92086fbaef9b4ef61202612d648a12485c9f1244e793551d7",
      "transactionIndex": "0x4e",
      "blockHash": "0xc74b251e7b15b14bd7533cf459c5f8563c7ffc3c9f9381abae379bf7185d8f70",
      "blockNumber": "0x9fe02d",
      "gasUsed": "0xb76a",
      "effectiveGasPrice": "0xf4249",
      "from": "0x667c1abd4e25be048b8217f90fc576780cca8218",
      "to": "0x89cf3ad58b37b35337859ff1939b84a831e264ce",
      "contractAddress": null
    },
    {
      "status": "0x1",
      "cumulativeGasUsed": "0x9f23a0",
      "logs": [],
      "logsBloom": "0x00000000000000000000000000000000000000000000000000000000000000000000000000000000000000000000000000000000000000000000000000000000000000000000000000000000000000000000000000000000000000000000000000000000000000000000000000000000000000000000000000000000000000000000000000000000000000000000000000000000000000000000000000000000000000000000000000000000000000000000000000000000000000000000000000000000000000000000000000000000000000000000000000000000000000000000000000000000000000000000000000000000000000000000000000000000",
      "type": "0x2",
      "transactionHash": "0xab688902e964c12a37cece3b00e546b0c1f6c542592ab2d441f58bee1717abec",
      "transactionIndex": "0x4f",
      "blockHash": "0xc74b251e7b15b14bd7533cf459c5f8563c7ffc3c9f9381abae379bf7185d8f70",
      "blockNumber": "0x9fe02d",
      "gasUsed": "0xb5f6",
      "effectiveGasPrice": "0xf4249",
      "from": "0x667c1abd4e25be048b8217f90fc576780cca8218",
      "to": "0x89cf3ad58b37b35337859ff1939b84a831e264ce",
      "contractAddress": null
    }
  ],
  "libraries": [],
  "pending": [],
  "returns": {},
  "timestamp": 1773933348994,
  "chain": 11155111,
  "commit": "ea7f5a8"
}