{
  "transactions": [
    {
      "hash": "0x70af361342178c4a2479fdf9b53a3a84f7817c570d358090c63639961876f99c",
      "transactionType": "CALL",
      "contractName": null,
      "contractAddress": "0x855b0881580caeed3711cfb6f2f1704f8b6124ce",
      "function": "setReceiverForDestinationChain(uint64,address)",
      "arguments": [
        "14767482510784806043",
        "0x75ef33A278b30529e083aF180eDFe17f5B34f49D"
      ],
      "transaction": {
        "from": "0x667c1abd4e25be048b8217f90fc576780cca8218",
        "to": "0x855b0881580caeed3711cfb6f2f1704f8b6124ce",
        "gas": "0xa131",
        "value": "0x0",
        "input": "0x3f3b7a6f000000000000000000000000000000000000000000000000ccf0a31a221f3c9b00000000000000000000000075ef33a278b30529e083af180edfe17f5b34f49d",
        "nonce": "0x300",
        "chainId": "0xaa36a7"
      },
      "additionalContracts": [],
      "isFixedGasLimit": false
    },
    {
      "hash": "0xffb7214eab745b357b346e3b0f56cc3f0f2119b069b2e8e2cbb64ff64abb76fe",
      "transactionType": "CALL",
      "contractName": null,
      "contractAddress": "0x855b0881580caeed3711cfb6f2f1704f8b6124ce",
      "function": "setGasLimitForDestinationChain(uint64,uint256)",
      "arguments": [
        "14767482510784806043",
        "20000"
      ],
      "transaction": {
        "from": "0x667c1abd4e25be048b8217f90fc576780cca8218",
        "to": "0x855b0881580caeed3711cfb6f2f1704f8b6124ce",
        "gas": "0x9014",
        "value": "0x0",
        "input": "0x5dc2594e000000000000000000000000000000000000000000000000ccf0a31a221f3c9b0000000000000000000000000000000000000000000000000000000000004e20",
        "nonce": "0x301",
        "chainId": "0xaa36a7"
      },
      "additionalContracts": [],
      "isFixedGasLimit": false
    }
  ],
  "receipts": [
    {
      "status": "0x1",
      "cumulativeGasUsed": "0x841f93",
      "logs": [],
      "logsBloom": "0x00000000000000000000000000000000000000000000000000000000000000000000000000000000000000000000000000000000000000000000000000000000000000000000000000000000000000000000000000000000000000000000000000000000000000000000000000000000000000000000000000000000000000000000000000000000000000000000000000000000000000000000000000000000000000000000000000000000000000000000000000000000000000000000000000000000000000000000000000000000000000000000000000000000000000000000000000000000000000000000000000000000000000000000000000000000",
      "type": "0x2",
      "transactionHash": "0xffb7214eab745b357b346e3b0f56cc3f0f2119b069b2e8e2cbb64ff64abb76fe",
      "transactionIndex": "0x5f",
      "blockHash": "0xbf46aac09f2ec060b540a12a0e96c5363e15b3f7bf72439056640afc4b41fccf",
      "blockNumber": "0x9ff167",
      "gasUsed": "0x74b4",
      "effectiveGasPrice": "0xf424b",
      "from": "0x667c1abd4e25be048b8217f90fc576780cca8218",
      "to": "0x855b0881580caeed3711cfb6f2f1704f8b6124ce",
      "contractAddress": null
    },
    {
      "status": "0x1",
      "cumulativeGasUsed": "0x8487e3",
      "logs": [],
      "logsBloom": "0x00000000000000000000000000000000000000000000000000000000000000000000000000000000000000000000000000000000000000000000000000000000000000000000000000000000000000000000000000000000000000000000000000000000000000000000000000000000000000000000000000000000000000000000000000000000000000000000000000000000000000000000000000000000000000000000000000000000000000000000000000000000000000000000000000000000000000000000000000000000000000000000000000000000000000000000000000000000000000000000000000000000000000000000000000000000",
      "type": "0x2",
      "transactionHash": "0x70af361342178c4a2479fdf9b53a3a84f7817c570d358090c63639961876f99c",
      "transactionIndex": "0x60",
      "blockHash": "0xbf46aac09f2ec060b540a12a0e96c5363e15b3f7bf72439056640afc4b41fccf",
      "blockNumber": "0x9ff167",
      "gasUsed": "0x6850",
      "effectiveGasPrice": "0xf424b",
      "from": "0x667c1abd4e25be048b8217f90fc576780cca8218",
      "to": "0x855b0881580caeed3711cfb6f2f1704f8b6124ce",
      "contractAddress": null
    }
  ],
  "libraries": [],
  "pending": [],
  "returns": {},
  "timestamp": 1773987745811,
  "chain": 11155111,
  "commit": "232ed5d"
}