{
  "transactions": [
    {
      "hash": "0xb9ed02f9d99a81713b1b6f532e8bc8001481a38e9f682352b2dbb3b1a199ef05",
      "transactionType": "CALL",
      "contractName": null,
      "contractAddress": "0xaceb9192a160826382489ef1ca5459f87593e4ce",
      "function": "setReceiverForDestinationChain(uint64,address)",
      "arguments": [
        "14135854469784514356",
        "0x767de5eBB6097Bcdec78C24ee417Dc6112B2B35D"
      ],
      "transaction": {
        "from": "0x667c1abd4e25be048b8217f90fc576780cca8218",
        "to": "0xaceb9192a160826382489ef1ca5459f87593e4ce",
        "gas": "0x10c3d",
        "value": "0x0",
        "input": "0x3f3b7a6f000000000000000000000000000000000000000000000000c42ca4becc1faf34000000000000000000000000767de5ebb6097bcdec78c24ee417dc6112b2b35d",
        "nonce": "0x279",
        "chainId": "0xaa36a7"
      },
      "additionalContracts": [],
      "isFixedGasLimit": false
    },
    {
      "hash": "0xe024f011cab9b28bff420460b9d88ff67421ec55a87062b66a6cde0ba3939f2c",
      "transactionType": "CALL",
      "contractName": null,
      "contractAddress": "0xaceb9192a160826382489ef1ca5459f87593e4ce",
      "function": "setGasLimitForDestinationChain(uint64,uint256)",
      "arguments": [
        "14135854469784514356",
        "20000"
      ],
      "transaction": {
        "from": "0x667c1abd4e25be048b8217f90fc576780cca8218",
        "to": "0xaceb9192a160826382489ef1ca5459f87593e4ce",
        "gas": "0xfb54",
        "value": "0x0",
        "input": "0x5dc2594e000000000000000000000000000000000000000000000000c42ca4becc1faf340000000000000000000000000000000000000000000000000000000000004e20",
        "nonce": "0x27a",
        "chainId": "0xaa36a7"
      },
      "additionalContracts": [],
      "isFixedGasLimit": false
    }
  ],
  "receipts": [
    {
      "status": "0x1",
      "cumulativeGasUsed": "0xbe6d87",
      "logs": [],
      "logsBloom": "0x00000000000000000000000000000000000000000000000000000000000000000000000000000000000000000000000000000000000000000000000000000000000000000000000000000000000000000000000000000000000000000000000000000000000000000000000000000000000000000000000000000000000000000000000000000000000000000000000000000000000000000000000000000000000000000000000000000000000000000000000000000000000000000000000000000000000000000000000000000000000000000000000000000000000000000000000000000000000000000000000000000000000000000000000000000000",
      "type": "0x2",
      "transactionHash": "0xb9ed02f9d99a81713b1b6f532e8bc8001481a38e9f682352b2dbb3b1a199ef05",
      "transactionIndex": "0x49",
      "blockHash": "0xd7858404b7c7dfa74224d935202893f4bc1f87a23a4f4204f28db41d5cc96a5c",
      "blockNumber": "0x9fe0fe",
      "gasUsed": "0xb76a",
      "effectiveGasPrice": "0xf424b",
      "from": "0x667c1abd4e25be048b8217f90fc576780cca8218",
      "to": "0xaceb9192a160826382489ef1ca5459f87593e4ce",
      "contractAddress": null
    },
    {
      "status": "0x1",
      "cumulativeGasUsed": "0xbf237d",
      "logs": [],
      "logsBloom": "0x00000000000000000000000000000000000000000000000000000000000000000000000000000000000000000000000000000000000000000000000000000000000000000000000000000000000000000000000000000000000000000000000000000000000000000000000000000000000000000000000000000000000000000000000000000000000000000000000000000000000000000000000000000000000000000000000000000000000000000000000000000000000000000000000000000000000000000000000000000000000000000000000000000000000000000000000000000000000000000000000000000000000000000000000000000000",
      "type": "0x2",
      "transactionHash": "0xe024f011cab9b28bff420460b9d88ff67421ec55a87062b66a6cde0ba3939f2c",
      "transactionIndex": "0x4a",
      "blockHash": "0xd7858404b7c7dfa74224d935202893f4bc1f87a23a4f4204f28db41d5cc96a5c",
      "blockNumber": "0x9fe0fe",
      "gasUsed": "0xb5f6",
      "effectiveGasPrice": "0xf424b",
      "from": "0x667c1abd4e25be048b8217f90fc576780cca8218",
      "to": "0xaceb9192a160826382489ef1ca5459f87593e4ce",
      "contractAddress": null
    }
  ],
  "libraries": [],
  "pending": [],
  "returns": {},
  "timestamp": 1773936001241,
  "chain": 11155111,
  "commit": "ea7f5a8"
}