{
  "transactions": [
    {
      "hash": "0x4030ebcebccc7894604237f9058a0f0d860e08ce8972e8defd408f777717c917",
      "transactionType": "CALL",
      "contractName": null,
      "contractAddress": "0x2b703801bab3fa02735ae703ff71c53bce2f24ce",
      "function": "setReceiverForDestinationChain(uint64,address)",
      "arguments": [
        "14135854469784514356",
        "0x4eE12ADa2CF46cD5DF58b71b8e8bbc217dD50662"
      ],
      "transaction": {
        "from": "0x667c1abd4e25be048b8217f90fc576780cca8218",
        "to": "0x2b703801bab3fa02735ae703ff71c53bce2f24ce",
        "gas": "0x10c3d",
        "value": "0x0",
        "input": "0x3f3b7a6f000000000000000000000000000000000000000000000000c42ca4becc1faf340000000000000000000000004ee12ada2cf46cd5df58b71b8e8bbc217dd50662",
        "nonce": "0x263",
        "chainId": "0xaa36a7"
      },
      "additionalContracts": [],
      "isFixedGasLimit": false
    },
    {
      "hash": "0x96859dadf2b0b732f8dda8e72ca17b34b3e55560e812c4b39b5865721d10d2f3",
      "transactionType": "CALL",
      "contractName": null,
      "contractAddress": "0x2b703801bab3fa02735ae703ff71c53bce2f24ce",
      "function": "setGasLimitForDestinationChain(uint64,uint256)",
      "arguments": [
        "14135854469784514356",
        "20000"
      ],
      "transaction": {
        "from": "0x667c1abd4e25be048b8217f90fc576780cca8218",
        "to": "0x2b703801bab3fa02735ae703ff71c53bce2f24ce",
        "gas": "0xfb54",
        "value": "0x0",
        "input": "0x5dc2594e000000000000000000000000000000000000000000000000c42ca4becc1faf340000000000000000000000000000000000000000000000000000000000004e20",
        "nonce": "0x264",
        "chainId": "0xaa36a7"
      },
      "additionalContracts": [],
      "isFixedGasLimit": false
    }
  ],
  "receipts": [
    {
      "status": "0x1",
      "cumulativeGasUsed": "0xd172a9",
      "logs": [],
      "logsBloom": "0x00000000000000000000000000000000000000000000000000000000000000000000000000000000000000000000000000000000000000000000000000000000000000000000000000000000000000000000000000000000000000000000000000000000000000000000000000000000000000000000000000000000000000000000000000000000000000000000000000000000000000000000000000000000000000000000000000000000000000000000000000000000000000000000000000000000000000000000000000000000000000000000000000000000000000000000000000000000000000000000000000000000000000000000000000000000",
      "type": "0x2",
      "transactionHash": "0x4030ebcebccc7894604237f9058a0f0d860e08ce8972e8defd408f777717c917",
      "transactionIndex": "0x5c",
      "blockHash": "0xea98c2105046a3501a06c2b787591b667b9e1f9acd3790ada2ef1c5b2243d15a",
      "blockNumber": "0x9fdeb9",
      "gasUsed": "0xb76a",
      "effectiveGasPrice": "0xf424c",
      "from": "0x667c1abd4e25be048b8217f90fc576780cca8218",
      "to": "0x2b703801bab3fa02735ae703ff71c53bce2f24ce",
      "contractAddress": null
    },
    {
      "status": "0x1",
      "cumulativeGasUsed": "0xd2289f",
      "logs": [],
      "logsBloom": "0x00000000000000000000000000000000000000000000000000000000000000000000000000000000000000000000000000000000000000000000000000000000000000000000000000000000000000000000000000000000000000000000000000000000000000000000000000000000000000000000000000000000000000000000000000000000000000000000000000000000000000000000000000000000000000000000000000000000000000000000000000000000000000000000000000000000000000000000000000000000000000000000000000000000000000000000000000000000000000000000000000000000000000000000000000000000",
      "type": "0x2",
      "transactionHash": "0x96859dadf2b0b732f8dda8e72ca17b34b3e55560e812c4b39b5865721d10d2f3",
      "transactionIndex": "0x5d",
      "blockHash": "0xea98c2105046a3501a06c2b787591b667b9e1f9acd3790ada2ef1c5b2243d15a",
      "blockNumber": "0x9fdeb9",
      "gasUsed": "0xb5f6",
      "effectiveGasPrice": "0xf424c",
      "from": "0x667c1abd4e25be048b8217f90fc576780cca8218",
      "to": "0x2b703801bab3fa02735ae703ff71c53bce2f24ce",
      "contractAddress": null
    }
  ],
  "libraries": [],
  "pending": [],
  "returns": {},
  "timestamp": 1773928789429,
  "chain": 11155111,
  "commit": "ea7f5a8"
}