{
  "transactions": [
    {
      "hash": "0xec8115058237c1d2f5fc27dbe15843dbc79061314d5bff0a947f5b391d4193d9",
      "transactionType": "CALL",
      "contractName": null,
      "contractAddress": "0x2ab8d70bdb645a8d408f2b190c9a7ea08f39e4ce",
      "function": "setReceiverForDestinationChain(uint64,address)",
      "arguments": [
        "14135854469784514356",
        "0x5B17b78e34954A760D293655bAF440C817080C3E"
      ],
      "transaction": {
        "from": "0x667c1abd4e25be048b8217f90fc576780cca8218",
        "to": "0x2ab8d70bdb645a8d408f2b190c9a7ea08f39e4ce",
        "gas": "0x10c3d",
        "value": "0x0",
        "input": "0x3f3b7a6f000000000000000000000000000000000000000000000000c42ca4becc1faf340000000000000000000000005b17b78e34954a760d293655baf440c817080c3e",
        "nonce": "0x26a",
        "chainId": "0xaa36a7"
      },
      "additionalContracts": [],
      "isFixedGasLimit": false
    },
    {
      "hash": "0xc6ed96cfd8552666b4da05839ff755e1f5bf74c905d3c1ab2209a88cc2a82bf1",
      "transactionType": "CALL",
      "contractName": null,
      "contractAddress": "0x2ab8d70bdb645a8d408f2b190c9a7ea08f39e4ce",
      "function": "setGasLimitForDestinationChain(uint64,uint256)",
      "arguments": [
        "14135854469784514356",
        "20000"
      ],
      "transaction": {
        "from": "0x667c1abd4e25be048b8217f90fc576780cca8218",
        "to": "0x2ab8d70bdb645a8d408f2b190c9a7ea08f39e4ce",
        "gas": "0xfb54",
        "value": "0x0",
        "input": "0x5dc2594e000000000000000000000000000000000000000000000000c42ca4becc1faf340000000000000000000000000000000000000000000000000000000000004e20",
        "nonce": "0x26b",
        "chainId": "0xaa36a7"
      },
      "additionalContracts": [],
      "isFixedGasLimit": false
    }
  ],
  "receipts": [
    {
      "status": "0x1",
      "cumulativeGasUsed": "0x67f460",
      "logs": [],
      "logsBloom": "0x00000000000000000000000000000000000000000000000000000000000000000000000000000000000000000000000000000000000000000000000000000000000000000000000000000000000000000000000000000000000000000000000000000000000000000000000000000000000000000000000000000000000000000000000000000000000000000000000000000000000000000000000000000000000000000000000000000000000000000000000000000000000000000000000000000000000000000000000000000000000000000000000000000000000000000000000000000000000000000000000000000000000000000000000000000000",
      "type": "0x2",
      "transactionHash": "0xc6ed96cfd8552666b4da05839ff755e1f5bf74c905d3c1ab2209a88cc2a82bf1",
      "transactionIndex": "0x4c",
      "blockHash": "0x0e8f8204479ed1004772d2d8fbc36a1701f114b81d2620f1662ef681c9e45278",
      "blockNumber": "0x9fdffe",
      "gasUsed": "0xb76a",
      "effectiveGasPrice": "0xf424a",
      "from": "0x667c1abd4e25be048b8217f90fc576780cca8218",
      "to": "0x2ab8d70bdb645a8d408f2b190c9a7ea08f39e4ce",
      "contractAddress": null
    },
    {
      "status": "0x1",
      "cumulativeGasUsed": "0x6a1898",
      "logs": [],
      "logsBloom": "0x00000000000000000000000000000000000000000000000000000000000000000000000000000000000000000000000000000000000000000000000000000000000000000000000000000000000000000000000000000000000000000000000000000000000000000000000000000000000000000000000000000000000000000000000000000000000000000000000000000000000000000000000000000000000000000000000000000000000000000000000000000000000000000000000000000000000000000000000000000000000000000000000000000000000000000000000000000000000000000000000000000000000000000000000000000000",
      "type": "0x2",
      "transactionHash": "0xec8115058237c1d2f5fc27dbe15843dbc79061314d5bff0a947f5b391d4193d9",
      "transactionIndex": "0x4f",
      "blockHash": "0x0e8f8204479ed1004772d2d8fbc36a1701f114b81d2620f1662ef681c9e45278",
      "blockNumber": "0x9fdffe",
      "gasUsed": "0xb5f6",
      "effectiveGasPrice": "0xf424a",
      "from": "0x667c1abd4e25be048b8217f90fc576780cca8218",
      "to": "0x2ab8d70bdb645a8d408f2b190c9a7ea08f39e4ce",
      "contractAddress": null
    }
  ],
  "libraries": [],
  "pending": [],
  "returns": {},
  "timestamp": 1773932784232,
  "chain": 11155111,
  "commit": "ea7f5a8"
}