{
  "transactions": [
    {
      "hash": "0x367361ddc3510655659ecd199d80104db8324e5f681579964d5271a52a28aa33",
      "transactionType": "CALL",
      "contractName": null,
      "contractAddress": "0x7bdc5e441da38e15d7c0911acf96a04fb67624ce",
      "function": "setReceiverForDestinationChain(uint64,address)",
      "arguments": [
        "14767482510784806043",
        "0x607717140Bc2Ef8d28dEAa35Ab412Db151719E89"
      ],
      "transaction": {
        "from": "0x667c1abd4e25be048b8217f90fc576780cca8218",
        "to": "0x7bdc5e441da38e15d7c0911acf96a04fb67624ce",
        "gas": "0xa112",
        "value": "0x0",
        "input": "0x3f3b7a6f000000000000000000000000000000000000000000000000ccf0a31a221f3c9b000000000000000000000000607717140bc2ef8d28deaa35ab412db151719e89",
        "nonce": "0x2ad",
        "chainId": "0xaa36a7"
      },
      "additionalContracts": [],
      "isFixedGasLimit": false
    },
    {
      "hash": "0x28cd274e84866990eebb5fb0627ef1d2a6ba4b6fb42e23ffc25105c5dc84922e",
      "transactionType": "CALL",
      "contractName": null,
      "contractAddress": "0x7bdc5e441da38e15d7c0911acf96a04fb67624ce",
      "function": "setGasLimitForDestinationChain(uint64,uint256)",
      "arguments": [
        "14767482510784806043",
        "20000"
      ],
      "transaction": {
        "from": "0x667c1abd4e25be048b8217f90fc576780cca8218",
        "to": "0x7bdc5e441da38e15d7c0911acf96a04fb67624ce",
        "gas": "0x986e",
        "value": "0x0",
        "input": "0x5dc2594e000000000000000000000000000000000000000000000000ccf0a31a221f3c9b0000000000000000000000000000000000000000000000000000000000004e20",
        "nonce": "0x2ae",
        "chainId": "0xaa36a7"
      },
      "additionalContracts": [],
      "isFixedGasLimit": false
    }
  ],
  "receipts": [
    {
      "status": "0x1",
      "cumulativeGasUsed": "0x42d07a",
      "logs": [],
      "logsBloom": "0x00000000000000000000000000000000000000000000000000000000000000000000000000000000000000000000000000000000000000000000000000000000000000000000000000000000000000000000000000000000000000000000000000000000000000000000000000000000000000000000000000000000000000000000000000000000000000000000000000000000000000000000000000000000000000000000000000000000000000000000000000000000000000000000000000000000000000000000000000000000000000000000000000000000000000000000000000000000000000000000000000000000000000000000000000000000",
      "type": "0x2",
      "transactionHash": "0x28cd274e84866990eebb5fb0627ef1d2a6ba4b6fb42e23ffc25105c5dc84922e",
      "transactionIndex": "0x39",
      "blockHash": "0x5b88d2feb49bfe4effa9f6f793b944294f6898878d511816ae755251c58eed59",
      "blockNumber": "0x9fe6b8",
      "gasUsed": "0x749e",
      "effectiveGasPrice": "0xf424a",
      "from": "0x667c1abd4e25be048b8217f90fc576780cca8218",
      "to": "0x7bdc5e441da38e15d7c0911acf96a04fb67624ce",
      "contractAddress": null
    },
    {
      "status": "0x1",
      "cumulativeGasUsed": "0x4338b4",
      "logs": [],
      "logsBloom": "0x00000000000000000000000000000000000000000000000000000000000000000000000000000000000000000000000000000000000000000000000000000000000000000000000000000000000000000000000000000000000000000000000000000000000000000000000000000000000000000000000000000000000000000000000000000000000000000000000000000000000000000000000000000000000000000000000000000000000000000000000000000000000000000000000000000000000000000000000000000000000000000000000000000000000000000000000000000000000000000000000000000000000000000000000000000000",
      "type": "0x2",
      "transactionHash": "0x367361ddc3510655659ecd199d80104db8324e5f681579964d5271a52a28aa33",
      "transactionIndex": "0x3a",
      "blockHash": "0x5b88d2feb49bfe4effa9f6f793b944294f6898878d511816ae755251c58eed59",
      "blockNumber": "0x9fe6b8",
      "gasUsed": "0x683a",
      "effectiveGasPrice": "0xf424a",
      "from": "0x667c1abd4e25be048b8217f90fc576780cca8218",
      "to": "0x7bdc5e441da38e15d7c0911acf96a04fb67624ce",
      "contractAddress": null
    }
  ],
  "libraries": [],
  "pending": [],
  "returns": {},
  "timestamp": 1773954204081,
  "chain": 11155111,
  "commit": "ea7f5a8"
}