{
  "transactions": [
    {
      "hash": "0xc687f827947f7190c095ca5df5daa25954fa2dda54a2c08fa3dadba74afb27d4",
      "transactionType": "CALL",
      "contractName": null,
      "contractAddress": "0xa5abba48226d1b2499d7d8fc053bae715dfde4ce",
      "function": "setReceiverForDestinationChain(uint64,address)",
      "arguments": [
        "14135854469784514356",
        "0x36Cdc9011691CCEE3395e8Adc10d686c3B31a6AA"
      ],
      "transaction": {
        "from": "0x667c1abd4e25be048b8217f90fc576780cca8218",
        "to": "0xa5abba48226d1b2499d7d8fc053bae715dfde4ce",
        "gas": "0x91f7",
        "value": "0x0",
        "input": "0x3f3b7a6f000000000000000000000000000000000000000000000000c42ca4becc1faf3400000000000000000000000036cdc9011691ccee3395e8adc10d686c3b31a6aa",
        "nonce": "0x25c",
        "chainId": "0xaa36a7"
      },
      "additionalContracts": [],
      "isFixedGasLimit": false
    },
    {
      "hash": "0x289109f22f3a80841ef229d6a795beaabcf7f7fdc77737fffa71b05634cc69ce",
      "transactionType": "CALL",
      "contractName": null,
      "contractAddress": "0xa5abba48226d1b2499d7d8fc053bae715dfde4ce",
      "function": "setGasLimitForDestinationChain(uint64,uint256)",
      "arguments": [
        "14135854469784514356",
        "20000"
      ],
      "transaction": {
        "from": "0x667c1abd4e25be048b8217f90fc576780cca8218",
        "to": "0xa5abba48226d1b2499d7d8fc053bae715dfde4ce",
        "gas": "0x986e",
        "value": "0x0",
        "input": "0x5dc2594e000000000000000000000000000000000000000000000000c42ca4becc1faf340000000000000000000000000000000000000000000000000000000000004e20",
        "nonce": "0x25d",
        "chainId": "0xaa36a7"
      },
      "additionalContracts": [],
      "isFixedGasLimit": false
    }
  ],
  "receipts": [
    {
      "status": "0x1",
      "cumulativeGasUsed": "0xbce140",
      "logs": [],
      "logsBloom": "0x00000000000000000000000000000000000000000000000000000000000000000000000000000000000000000000000000000000000000000000000000000000000000000000000000000000000000000000000000000000000000000000000000000000000000000000000000000000000000000000000000000000000000000000000000000000000000000000000000000000000000000000000000000000000000000000000000000000000000000000000000000000000000000000000000000000000000000000000000000000000000000000000000000000000000000000000000000000000000000000000000000000000000000000000000000000",
      "type": "0x2",
      "transactionHash": "0xc687f827947f7190c095ca5df5daa25954fa2dda54a2c08fa3dadba74afb27d4",
      "transactionIndex": "0x57",
      "blockHash": "0xcaf8bbe9d2f9134262d685263c941bb7a8271c56b0e522b03e85c9ebe2417ecb",
      "blockNumber": "0x9fdc93",
      "gasUsed": "0x69ae",
      "effectiveGasPrice": "0xf424b",
      "from": "0x667c1abd4e25be048b8217f90fc576780cca8218",
      "to": "0xa5abba48226d1b2499d7d8fc053bae715dfde4ce",
      "contractAddress": null
    },
    {
      "status": "0x1",
      "cumulativeGasUsed": "0x7f5c81",
      "logs": [],
      "logsBloom": "0x00000000000000000000000000000000000000000000000000000000000000000000000000000000000000000000000000000000000000000000000000000000000000000000000000000000000000000000000000000000000000000000000000000000000000000000000000000000000000000000000000000000000000000000000000000000000000000000000000000000000000000000000000000000000000000000000000000000000000000000000000000000000000000000000000000000000000000000000000000000000000000000000000000000000000000000000000000000000000000000000000000000000000000000000000000000",
      "type": "0x2",
      "transactionHash": "0x289109f22f3a80841ef229d6a795beaabcf7f7fdc77737fffa71b05634cc69ce",
      "transactionIndex": "0x66",
      "blockHash": "0xaee59ab791d7e21cc31e3ce68fa3f9b876ba79065721165f5d2e31364366bf0a",
      "blockNumber": "0x9fdc94",
      "gasUsed": "0x683a",
      "effectiveGasPrice": "0xf424b",
      "from": "0x667c1abd4e25be048b8217f90fc576780cca8218",
      "to": "0xa5abba48226d1b2499d7d8fc053bae715dfde4ce",
      "contractAddress": null
    }
  ],
  "libraries": [],
  "pending": [],
  "returns": {},
  "timestamp": 1773921901149,
  "chain": 11155111,
  "commit": "ea7f5a8"
}