{
  "transactions": [
    {
      "hash": "0x4b93dd1d1486fb4ecdb015fdb8f47553dc7a5cec6079bb1bbe38cee5f1b5b2de",
      "transactionType": "CALL",
      "contractName": null,
      "contractAddress": "0x4ee12ada2cf46cd5df58b71b8e8bbc217dd50662",
      "function": "setSenderForSourceChain(uint64,address)",
      "arguments": [
        "16015286601757825753",
        "0x2b703801bAB3FA02735ae703FF71c53bCE2f24CE"
      ],
      "transaction": {
        "from": "0x667c1abd4e25be048b8217f90fc576780cca8218",
        "to": "0x4ee12ada2cf46cd5df58b71b8e8bbc217dd50662",
        "gas": "0xfcf8",
        "value": "0x0",
        "input": "0xded394a3000000000000000000000000000000000000000000000000de41ba4fc9d91ad90000000000000000000000002b703801bab3fa02735ae703ff71c53bce2f24ce",
        "nonce": "0x9",
        "chainId": "0x515"
      },
      "additionalContracts": [],
      "isFixedGasLimit": false
    }
  ],
  "receipts": [
    {
      "status": "0x1",
      "cumulativeGasUsed": "0xe3586",
      "logs": [],
      "logsBloom": "0x00000000000000000000000000000000000000000000000000000000000000000000000000000000000000000000000000000000000000000000000000000000000000000000000000000000000000000000000000000000000000000000000000000000000000000000000000000000000000000000000000000000000000000000000000000000000000000000000000000000000000000000000000000000000000000000000000000000000000000000000000000000000000000000000000000000000000000000000000000000000000000000000000000000000000000000000000000000000000000000000000000000000000000000000000000000",
      "type": "0x2",
      "transactionHash": "0x4b93dd1d1486fb4ecdb015fdb8f47553dc7a5cec6079bb1bbe38cee5f1b5b2de",
      "transactionIndex": "0x6",
      "blockHash": "0xcbd5a12e152927198153f0aebdae859fde0917fb91231bb8a897437b37160394",
      "blockNumber": "0x2ce542f",
      "gasUsed": "0xb726",
      "effectiveGasPrice": "0x7a121",
      "blobGasUsed": "0x9c40",
      "from": "0x667c1abd4e25be048b8217f90fc576780cca8218",
      "to": "0x4ee12ada2cf46cd5df58b71b8e8bbc217dd50662",
      "contractAddress": null,
      "daFootprintGasScalar": "0x190",
      "l1BaseFeeScalar": "0x7d0",
      "l1BlobBaseFee": "0x1",
      "l1BlobBaseFeeScalar": "0xdbba0",
      "l1Fee": "0x80",
      "l1GasPrice": "0xc",
      "l1GasUsed": "0x640"
    }
  ],
  "libraries": [],
  "pending": [],
  "returns": {},
  "timestamp": 1773928827580,
  "chain": 1301,
  "commit": "ea7f5a8"
}