{
  "transactions": [
    {
      "hash": "0x85c1ee2f28346631e46c26e2f761a8ebbfb2bc425540f8ca423078de7bd5682f",
      "transactionType": "CALL",
      "contractName": null,
      "contractAddress": "0x5b17b78e34954a760d293655baf440c817080c3e",
      "function": "setSenderForSourceChain(uint64,address)",
      "arguments": [
        "16015286601757825753",
        "0x2aB8D70Bdb645A8d408f2B190c9A7EA08F39e4CE"
      ],
      "transaction": {
        "from": "0x667c1abd4e25be048b8217f90fc576780cca8218",
        "to": "0x5b17b78e34954a760d293655baf440c817080c3e",
        "gas": "0xfcf8",
        "value": "0x0",
        "input": "0xded394a3000000000000000000000000000000000000000000000000de41ba4fc9d91ad90000000000000000000000002ab8d70bdb645a8d408f2b190c9a7ea08f39e4ce",
        "nonce": "0xb",
        "chainId": "0x515"
      },
      "additionalContracts": [],
      "isFixedGasLimit": false
    }
  ],
  "receipts": [
    {
      "status": "0x1",
      "cumulativeGasUsed": "0x61176",
      "logs": [],
      "logsBloom": "0x00000000000000000000000000000000000000000000000000000000000000000000000000000000000000000000000000000000000000000000000000000000000000000000000000000000000000000000000000000000000000000000000000000000000000000000000000000000000000000000000000000000000000000000000000000000000000000000000000000000000000000000000000000000000000000000000000000000000000000000000000000000000000000000000000000000000000000000000000000000000000000000000000000000000000000000000000000000000000000000000000000000000000000000000000000000",
      "type": "0x2",
      "transactionHash": "0x85c1ee2f28346631e46c26e2f761a8ebbfb2bc425540f8ca423078de7bd5682f",
      "transactionIndex": "0x5",
      "blockHash": "0x58e5fdcbf2a90bca549c03f40c46aaa223154a04bddbb02189ec5210fd951f37",
      "blockNumber": "0x2ce63bd",
      "gasUsed": "0xb726",
      "effectiveGasPrice": "0x7a121",
      "blobGasUsed": "0x9c40",
      "from": "0x667c1abd4e25be048b8217f90fc576780cca8218",
      "to": "0x5b17b78e34954a760d293655baf440c817080c3e",
      "contractAddress": null,
      "daFootprintGasScalar": "0x190",
      "l1BaseFeeScalar": "0x7d0",
      "l1BlobBaseFee": "0x1",
      "l1BlobBaseFeeScalar": "0xdbba0",
      "l1Fee": "0x7a",
      "l1GasPrice": "0xa",
      "l1GasUsed": "0x640"
    }
  ],
  "libraries": [],
  "pending": [],
  "returns": {},
  "timestamp": 1773932810022,
  "chain": 1301,
  "commit": "ea7f5a8"
}