{
  "transactions": [
    {
      "hash": "0x85c24a1371ecbbf85d379a9bd9aeae75cb82b4fdc030fdb036f230c5d198f578",
      "transactionType": "CALL",
      "contractName": null,
      "contractAddress": "0x5b17b78e34954a760d293655baf440c817080c3e",
      "function": "setSenderForSourceChain(uint64,address)",
      "arguments": [
        "16015286601757825753",
        "0x89Cf3Ad58B37b35337859fF1939B84A831E264CE"
      ],
      "transaction": {
        "from": "0x667c1abd4e25be048b8217f90fc576780cca8218",
        "to": "0x5b17b78e34954a760d293655baf440c817080c3e",
        "gas": "0xaa29",
        "value": "0x0",
        "input": "0xded394a3000000000000000000000000000000000000000000000000de41ba4fc9d91ad900000000000000000000000089cf3ad58b37b35337859ff1939b84a831e264ce",
        "nonce": "0xc",
        "chainId": "0x515"
      },
      "additionalContracts": [],
      "isFixedGasLimit": false
    }
  ],
  "receipts": [
    {
      "status": "0x1",
      "cumulativeGasUsed": "0x5ce9e",
      "logs": [],
      "logsBloom": "0x00000000000000000000000000000000000000000000000000000000000000000000000000000000000000000000000000000000000000000000000000000000000000000000000000000000000000000000000000000000000000000000000000000000000000000000000000000000000000000000000000000000000000000000000000000000000000000000000000000000000000000000000000000000000000000000000000000000000000000000000000000000000000000000000000000000000000000000000000000000000000000000000000000000000000000000000000000000000000000000000000000000000000000000000000000000",
      "type": "0x2",
      "transactionHash": "0x85c24a1371ecbbf85d379a9bd9aeae75cb82b4fdc030fdb036f230c5d198f578",
      "transactionIndex": "0x5",
      "blockHash": "0xc82ad9ba82bfe0421626509f0658ddac9e21f5fc2c7c61332e8953b2d1e7c70e",
      "blockNumber": "0x2ce65ea",
      "gasUsed": "0x745a",
      "effectiveGasPrice": "0x7a121",
      "blobGasUsed": "0x9c40",
      "from": "0x667c1abd4e25be048b8217f90fc576780cca8218",
      "to": "0x5b17b78e34954a760d293655baf440c817080c3e",
      "contractAddress": null,
      "daFootprintGasScalar": "0x190",
      "l1BaseFeeScalar": "0x7d0",
      "l1BlobBaseFee": "0x1",
      "l1BlobBaseFeeScalar": "0xdbba0",
      "l1Fee": "0x76",
      "l1GasPrice": "0x9",
      "l1GasUsed": "0x640"
    }
  ],
  "libraries": [],
  "pending": [],
  "returns": {},
  "timestamp": 1773933366911,
  "chain": 1301,
  "commit": "ea7f5a8"
}