{
  "transactions": [
    {
      "hash": "0x63fefc8d28bf8d853097e64c34eab9ef9dabe6f7e2a41f7a2ec2eb41dc21af16",
      "transactionType": "CALL",
      "contractName": "USDTMock",
      "contractAddress": "0x3428fb59fa75e14a1ba6d33161fa69545f8b54af",
      "function": "mint(address,uint256)",
      "arguments": [
        "0x667c1aBD4E25BE048b8217F90Fc576780CCa8218",
        "10000000"
      ],
      "transaction": {
        "from": "0x667c1abd4e25be048b8217f90fc576780cca8218",
        "to": "0x3428fb59fa75e14a1ba6d33161fa69545f8b54af",
        "gas": "0xc5ce",
        "value": "0x0",
        "input": "0x40c10f19000000000000000000000000667c1abd4e25be048b8217f90fc576780cca82180000000000000000000000000000000000000000000000000000000000989680",
        "nonce": "0x2c5",
        "chainId": "0xaa36a7"
      },
      "additionalContracts": [],
      "isFixedGasLimit": false
    },
    {
      "hash": "0x7a894e6482ee8fed04f3b1df7af3f2cac27023b6fde6706299d43726d09e5c0f",
      "transactionType": "CALL",
      "contractName": null,
      "contractAddress": "0x33c88d1d00369455392d1ac33d5145b77fea811b",
      "function": "addLiquidity((address,address,uint24,int24,address),uint256,uint256)",
      "arguments": [
        "(0x1c7D4B196Cb0C7B01d743Fbc6116a902379C7238, 0x3428Fb59Fa75E14A1ba6d33161FA69545f8B54aF, 8388608, 60, 0x7bDc5E441da38E15D7C0911acF96A04FB67624Ce)",
        "5000000",
        "5000000"
      ],
      "transaction": {
        "from": "0x667c1abd4e25be048b8217f90fc576780cca8218",
        "to": "0x33c88d1d00369455392d1ac33d5145b77fea811b",
        "gas": "0x45eae",
        "value": "0x0",
        "input": "0xa9bf549c0000000000000000000000001c7d4b196cb0c7b01d743fbc6116a902379c72380000000000000000000000003428fb59fa75e14a1ba6d33161fa69545f8b54af0000000000000000000000000000000000000000000000000000000000800000000000000000000000000000000000000000000000000000000000000000003c0000000000000000000000007bdc5e441da38e15d7c0911acf96a04fb67624ce00000000000000000000000000000000000000000000000000000000004c4b4000000000000000000000000000000000000000000000000000000000004c4b40",
        "nonce": "0x2c6",
        "chainId": "0xaa36a7"
      },
      "additionalContracts": [],
      "isFixedGasLimit": false
    }
  ],
  "receipts": [
    {
      "status": "0x1",
      "cumulativeGasUsed": "0x18424ee",
      "logs": [
        {
          "address": "0x3428fb59fa75e14a1ba6d33161fa69545f8b54af",
          "topics": [
            "0xddf252ad1be2c89b69c2b068fc378daa952ba7f163c4a11628f55a4df523b3ef",
            "0x0000000000000000000000000000000000000000000000000000000000000000",
            "0x000000000000000000000000667c1abd4e25be048b8217f90fc576780cca8218"
          ],
          "data": "0x0000000000000000000000000000000000000000000000000000000000989680",
          "blockHash": "0x3d486c04671740358a2ab1a1c5b264afbc5dac3e1a1ca0463ce96440a7ed7dc4",
          "blockNumber": "0x9fea19",
          "blockTimestamp": "0x69bc8e0c",
          "transactionHash": "0x63fefc8d28bf8d853097e64c34eab9ef9dabe6f7e2a41f7a2ec2eb41dc21af16",
          "transactionIndex": "0xa5",
          "logIndex": "0x1b9",
          "removed": false
        }
      ],
      "logsBloom": "0x00000000000000000002000000000000000000000002000000000000000000000000000000000000000000000000000000000000000000000000000000000000000000000008000000000088000000000000000000000000000000000000000000000000020000000000000000000800000000000000000000000010000000000000000000000000000000000008000000000000000000000000000000000000000000000000000000000000000000000000000000000000000000000000000000000002000000000000000000000000000000000000000000000000000020000000000000000000008000000000000000000000000000000000000000000000",
      "type": "0x2",
      "transactionHash": "0x63fefc8d28bf8d853097e64c34eab9ef9dabe6f7e2a41f7a2ec2eb41dc21af16",
      "transactionIndex": "0xa5",
      "blockHash": "0x3d486c04671740358a2ab1a1c5b264afbc5dac3e1a1ca0463ce96440a7ed7dc4",
      "blockNumber": "0x9fea19",
      "gasUsed": "0x8741",
      "effectiveGasPrice": "0xf424a",
      "from": "0x667c1abd4e25be048b8217f90fc576780cca8218",
      "to": "0x3428fb59fa75e14a1ba6d33161fa69545f8b54af",
      "contractAddress": null
    },
    {
      "status": "0x1",
      "cumulativeGasUsed": "0x1874ed6",
      "logs": [
        {
          "address": "0x1c7d4b196cb0c7b01d743fbc6116a902379c7238",
          "topics": [
            "0xddf252ad1be2c89b69c2b068fc378daa952ba7f163c4a11628f55a4df523b3ef",
            "0x000000000000000000000000667c1abd4e25be048b8217f90fc576780cca8218",
            "0x00000000000000000000000033c88d1d00369455392d1ac33d5145b77fea811b"
          ],
          "data": "0x00000000000000000000000000000000000000000000000000000000004c4b40",
          "blockHash": "0x3d486c04671740358a2ab1a1c5b264afbc5dac3e1a1ca0463ce96440a7ed7dc4",
          "blockNumber": "0x9fea19",
          "blockTimestamp": "0x69bc8e0c",
          "transactionHash": "0x7a894e6482ee8fed04f3b1df7af3f2cac27023b6fde6706299d43726d09e5c0f",
          "transactionIndex": "0xa6",
          "logIndex": "0x1ba",
          "removed": false
        },
        {
          "address": "0x3428fb59fa75e14a1ba6d33161fa69545f8b54af",
          "topics": [
            "0xddf252ad1be2c89b69c2b068fc378daa952ba7f163c4a11628f55a4df523b3ef",
            "0x000000000000000000000000667c1abd4e25be048b8217f90fc576780cca8218",
            "0x00000000000000000000000033c88d1d00369455392d1ac33d5145b77fea811b"
          ],
          "data": "0x00000000000000000000000000000000000000000000000000000000004c4b40",
          "blockHash": "0x3d486c04671740358a2ab1a1c5b264afbc5dac3e1a1ca0463ce96440a7ed7dc4",
          "blockNumber": "0x9fea19",
          "blockTimestamp": "0x69bc8e0c",
          "transactionHash": "0x7a894e6482ee8fed04f3b1df7af3f2cac27023b6fde6706299d43726d09e5c0f",
          "transactionIndex": "0xa6",
          "logIndex": "0x1bb",
          "removed": false
        },
        {
          "address": "0x1c7d4b196cb0c7b01d743fbc6116a902379c7238",
          "topics": [
            "0x8c5be1e5ebec7d5bd14f71427d1e84f3dd0314c0f7b2291e5b200ac8c7c3b925",
            "0x00000000000000000000000033c88d1d00369455392d1ac33d5145b77fea811b",
            "0x000000000000000000000000e03a1074c86cfedd5c142c4f04f1a1536e203543"
          ],
          "data": "0xffffffffffffffffffffffffffffffffffffffffffffffffffffffffffffffff",
          "blockHash": "0x3d486c04671740358a2ab1a1c5b264afbc5dac3e1a1ca0463ce96440a7ed7dc4",
          "blockNumber": "0x9fea19",
          "blockTimestamp": "0x69bc8e0c",
          "transactionHash": "0x7a894e6482ee8fed04f3b1df7af3f2cac27023b6fde6706299d43726d09e5c0f",
          "transactionIndex": "0xa6",
          "logIndex": "0x1bc",
          "removed": false
        },
        {
          "address": "0x3428fb59fa75e14a1ba6d33161fa69545f8b54af",
          "topics": [
            "0x8c5be1e5ebec7d5bd14f71427d1e84f3dd0314c0f7b2291e5b200ac8c7c3b925",
            "0x00000000000000000000000033c88d1d00369455392d1ac33d5145b77fea811b",
            "0x000000000000000000000000e03a1074c86cfedd5c142c4f04f1a1536e203543"
          ],
          "data": "0xffffffffffffffffffffffffffffffffffffffffffffffffffffffffffffffff",
          "blockHash": "0x3d486c04671740358a2ab1a1c5b264afbc5dac3e1a1ca0463ce96440a7ed7dc4",
          "blockNumber": "0x9fea19",
          "blockTimestamp": "0x69bc8e0c",
          "transactionHash": "0x7a894e6482ee8fed04f3b1df7af3f2cac27023b6fde6706299d43726d09e5c0f",
          "transactionIndex": "0xa6",
          "logIndex": "0x1bd",
          "removed": false
        },
        {
          "address": "0xe03a1074c86cfedd5c142c4f04f1a1536e203543",
          "topics": [
            "0xf208f4912782fd25c7f114ca3723a2d5dd6f3bcc3ac8db5af63baa85f711d5ec",
            "0x9fd0796ea90a3acab268f569ff640b005d85a5096de8360a9417b3fa320aa0c6",
            "0x00000000000000000000000033c88d1d00369455392d1ac33d5145b77fea811b"
          ],
          "data": "0xfffffffffffffffffffffffffffffffffffffffffffffffffffffffffffffda80000000000000000000000000000000000000000000000000000000000000258000000000000000000000000000000000000000000000000000000000a1598ab0000000000000000000000000000000000000000000000000000000000000000",
          "blockHash": "0x3d486c04671740358a2ab1a1c5b264afbc5dac3e1a1ca0463ce96440a7ed7dc4",
          "blockNumber": "0x9fea19",
          "blockTimestamp": "0x69bc8e0c",
          "transactionHash": "0x7a894e6482ee8fed04f3b1df7af3f2cac27023b6fde6706299d43726d09e5c0f",
          "transactionIndex": "0xa6",
          "logIndex": "0x1be",
          "removed": false
        },
        {
          "address": "0x1c7d4b196cb0c7b01d743fbc6116a902379c7238",
          "topics": [
            "0xddf252ad1be2c89b69c2b068fc378daa952ba7f163c4a11628f55a4df523b3ef",
            "0x00000000000000000000000033c88d1d00369455392d1ac33d5145b77fea811b",
            "0x000000000000000000000000e03a1074c86cfedd5c142c4f04f1a1536e203543"
          ],
          "data": "0x00000000000000000000000000000000000000000000000000000000004c4b40",
          "blockHash": "0x3d486c04671740358a2ab1a1c5b264afbc5dac3e1a1ca0463ce96440a7ed7dc4",
          "blockNumber": "0x9fea19",
          "blockTimestamp": "0x69bc8e0c",
          "transactionHash": "0x7a894e6482ee8fed04f3b1df7af3f2cac27023b6fde6706299d43726d09e5c0f",
          "transactionIndex": "0xa6",
          "logIndex": "0x1bf",
          "removed": false
        },
        {
          "address": "0x3428fb59fa75e14a1ba6d33161fa69545f8b54af",
          "topics": [
            "0xddf252ad1be2c89b69c2b068fc378daa952ba7f163c4a11628f55a4df523b3ef",
            "0x00000000000000000000000033c88d1d00369455392d1ac33d5145b77fea811b",
            "0x000000000000000000000000e03a1074c86cfedd5c142c4f04f1a1536e203543"
          ],
          "data": "0x00000000000000000000000000000000000000000000000000000000004c4b40",
          "blockHash": "0x3d486c04671740358a2ab1a1c5b264afbc5dac3e1a1ca0463ce96440a7ed7dc4",
          "blockNumber": "0x9fea19",
          "blockTimestamp": "0x69bc8e0c",
          "transactionHash": "0x7a894e6482ee8fed04f3b1df7af3f2cac27023b6fde6706299d43726d09e5c0f",
          "transactionIndex": "0xa6",
          "logIndex": "0x1c0",
          "removed": false
        }
      ],
      "logsBloom": "0x00001000000000000002000000000080000000000002000000000000000200000000000000000000000000000000000000000100000000000000000000200000000000000008000000000088000000000000000000000000000000000000000000000000000000000000000080000000000000000000100000000010000000000000000001102000000010000008000000000010002000000000000000000000020004000000000000000000000000000000000000000000000000000000000000000002000000000000000000000000000000000000000000001000000000001010000000000000008010000000000004000000000000000000000000000100",
      "type": "0x2",
      "transactionHash": "0x7a894e6482ee8fed04f3b1df7af3f2cac27023b6fde6706299d43726d09e5c0f",
      "transactionIndex": "0xa6",
      "blockHash": "0x3d486c04671740358a2ab1a1c5b264afbc5dac3e1a1ca0463ce96440a7ed7dc4",
      "blockNumber": "0x9fea19",
      "gasUsed": "0x329e8",
      "effectiveGasPrice": "0xf424a",
      "from": "0x667c1abd4e25be048b8217f90fc576780cca8218",
      "to": "0x33c88d1d00369455392d1ac33d5145b77fea811b",
      "contractAddress": null
    }
  ],
  "libraries": [],
  "pending": [],
  "returns": {},
  "timestamp": 1773964813148,
  "chain": 11155111,
  "commit": "232ed5d"
}