{
  "transactions": [
    {
      "hash": "0x81477b79dcbe45fdd7abba97da15470e912073137ec15caa016ac2822a97ce67",
      "transactionType": "CALL",
      "contractName": "USDTMock",
      "contractAddress": "0x3428fb59fa75e14a1ba6d33161fa69545f8b54af",
      "function": "mint(address,uint256)",
      "arguments": [
        "0x667c1aBD4E25BE048b8217F90Fc576780CCa8218",
        "10000000"
      ],
      "transaction": {
        "from": "0x667c1abd4e25be048b8217f90fc576780cca8218",
        "to": "0x3428fb59fa75e14a1ba6d33161fa69545f8b54af",
        "gas": "0xc5ce",
        "value": "0x0",
        "input": "0x40c10f19000000000000000000000000667c1abd4e25be048b8217f90fc576780cca82180000000000000000000000000000000000000000000000000000000000989680",
        "nonce": "0x2e0",
        "chainId": "0xaa36a7"
      },
      "additionalContracts": [],
      "isFixedGasLimit": false
    },
    {
      "hash": "0x33ae9fc2104d172bda8d07092f51d9b42df9aa55b404b3a9d0bc987a048b57d9",
      "transactionType": "CALL",
      "contractName": null,
      "contractAddress": "0x1c7d4b196cb0c7b01d743fbc6116a902379c7238",
      "function": "approve(address,uint256)",
      "arguments": [
        "0xe3BFb6ad2D6d996Fbd8cbE9EDc3d133e52E9f4f9",
        "115792089237316195423570985008687907853269984665640564039457584007913129639935"
      ],
      "transaction": {
        "from": "0x667c1abd4e25be048b8217f90fc576780cca8218",
        "to": "0x1c7d4b196cb0c7b01d743fbc6116a902379c7238",
        "gas": "0xd0b8",
        "value": "0x0",
        "input": "0x095ea7b3000000000000000000000000e3bfb6ad2d6d996fbd8cbe9edc3d133e52e9f4f9ffffffffffffffffffffffffffffffffffffffffffffffffffffffffffffffff",
        "nonce": "0x2e1",
        "chainId": "0xaa36a7"
      },
      "additionalContracts": [],
      "isFixedGasLimit": false
    },
    {
      "hash": "0xe7f02f5559b995a2a00947dd0c039a0af70d529a3f2f55a28f6c37533237e570",
      "transactionType": "CALL",
      "contractName": "USDTMock",
      "contractAddress": "0x3428fb59fa75e14a1ba6d33161fa69545f8b54af",
      "function": "approve(address,uint256)",
      "arguments": [
        "0xe3BFb6ad2D6d996Fbd8cbE9EDc3d133e52E9f4f9",
        "115792089237316195423570985008687907853269984665640564039457584007913129639935"
      ],
      "transaction": {
        "from": "0x667c1abd4e25be048b8217f90fc576780cca8218",
        "to": "0x3428fb59fa75e14a1ba6d33161fa69545f8b54af",
        "gas": "0xab13",
        "value": "0x0",
        "input": "0x095ea7b3000000000000000000000000e3bfb6ad2d6d996fbd8cbe9edc3d133e52e9f4f9ffffffffffffffffffffffffffffffffffffffffffffffffffffffffffffffff",
        "nonce": "0x2e2",
        "chainId": "0xaa36a7"
      },
      "additionalContracts": [],
      "isFixedGasLimit": false
    },
    {
      "hash": "0xfcb327cf9ea9d732bf61a0429fc9bbafd3acd50fcd6e435f5df7cfc18ce31092",
      "transactionType": "CALL",
      "contractName": null,
      "contractAddress": "0xe3bfb6ad2d6d996fbd8cbe9edc3d133e52e9f4f9",
      "function": "addLiquidity((address,address,uint24,int24,address),uint256,uint256)",
      "arguments": [
        "(0x1c7D4B196Cb0C7B01d743Fbc6116a902379C7238, 0x3428Fb59Fa75E14A1ba6d33161FA69545f8B54aF, 8388608, 60, 0x7bDc5E441da38E15D7C0911acF96A04FB67624Ce)",
        "2000000",
        "2000000"
      ],
      "transaction": {
        "from": "0x667c1abd4e25be048b8217f90fc576780cca8218",
        "to": "0xe3bfb6ad2d6d996fbd8cbe9edc3d133e52e9f4f9",
        "gas": "0x654f6",
        "value": "0x0",
        "input": "0xa9bf549c0000000000000000000000001c7d4b196cb0c7b01d743fbc6116a902379c72380000000000000000000000003428fb59fa75e14a1ba6d33161fa69545f8b54af0000000000000000000000000000000000000000000000000000000000800000000000000000000000000000000000000000000000000000000000000000003c0000000000000000000000007bdc5e441da38e15d7c0911acf96a04fb67624ce00000000000000000000000000000000000000000000000000000000001e848000000000000000000000000000000000000000000000000000000000001e8480",
        "nonce": "0x2e3",
        "chainId": "0xaa36a7"
      },
      "additionalContracts": [],
      "isFixedGasLimit": false
    }
  ],
  "receipts": [
    {
      "status": "0x1",
      "cumulativeGasUsed": "0x756bd8",
      "logs": [
        {
          "address": "0x3428fb59fa75e14a1ba6d33161fa69545f8b54af",
          "topics": [
            "0xddf252ad1be2c89b69c2b068fc378daa952ba7f163c4a11628f55a4df523b3ef",
            "0x0000000000000000000000000000000000000000000000000000000000000000",
            "0x000000000000000000000000667c1abd4e25be048b8217f90fc576780cca8218"
          ],
          "data": "0x0000000000000000000000000000000000000000000000000000000000989680",
          "blockHash": "0xaa6d43f09b9df12acb4ce85d6c21c34ea8621a3618e2b8d69574d410ca9cbb4a",
          "blockNumber": "0x9feb4c",
          "blockTimestamp": "0x69bc9ca0",
          "transactionHash": "0xfcb327cf9ea9d732bf61a0429fc9bbafd3acd50fcd6e435f5df7cfc18ce31092",
          "transactionIndex": "0x4f",
          "logIndex": "0xb7",
          "removed": false
        }
      ],
      "logsBloom": "0x00000000000000000002000000000000000000000002000000000000000000000000000000000000000000000000000000000000000000000000000000000000000000000008000000000088000000000000000000000000000000000000000000000000020000000000000000000800000000000000000000000010000000000000000000000000000000000008000000000000000000000000000000000000000000000000000000000000000000000000000000000000000000000000000000000002000000000000000000000000000000000000000000000000000020000000000000000000008000000000000000000000000000000000000000000000",
      "type": "0x2",
      "transactionHash": "0xfcb327cf9ea9d732bf61a0429fc9bbafd3acd50fcd6e435f5df7cfc18ce31092",
      "transactionIndex": "0x4f",
      "blockHash": "0xaa6d43f09b9df12acb4ce85d6c21c34ea8621a3618e2b8d69574d410ca9cbb4a",
      "blockNumber": "0x9feb4c",
      "gasUsed": "0x8741",
      "effectiveGasPrice": "0xf4249",
      "from": "0x667c1abd4e25be048b8217f90fc576780cca8218",
      "to": "0x3428fb59fa75e14a1ba6d33161fa69545f8b54af",
      "contractAddress": null
    },
    {
      "status": "0x1",
      "cumulativeGasUsed": "0x7f5200",
      "logs": [
        {
          "address": "0x1c7d4b196cb0c7b01d743fbc6116a902379c7238",
          "topics": [
            "0x8c5be1e5ebec7d5bd14f71427d1e84f3dd0314c0f7b2291e5b200ac8c7c3b925",
            "0x000000000000000000000000667c1abd4e25be048b8217f90fc576780cca8218",
            "0x000000000000000000000000e3bfb6ad2d6d996fbd8cbe9edc3d133e52e9f4f9"
          ],
          "data": "0xffffffffffffffffffffffffffffffffffffffffffffffffffffffffffffffff",
          "blockHash": "0xaa6d43f09b9df12acb4ce85d6c21c34ea8621a3618e2b8d69574d410ca9cbb4a",
          "blockNumber": "0x9feb4c",
          "blockTimestamp": "0x69bc9ca0",
          "transactionHash": "0xe7f02f5559b995a2a00947dd0c039a0af70d529a3f2f55a28f6c37533237e570",
          "transactionIndex": "0x55",
          "logIndex": "0xc6",
          "removed": false
        }
      ],
      "logsBloom": "0x00000000000000000002000000000000000000000000000000000000000200000400000000000000000000000000000000000000000000000000000000200000000000000000000000000080008000000000000000000000000000000000000000000000000000000000000000000000000000000000000000000000000000000000000000100000000000000008000000000000000000000000000000000000020000000000000000000000000000000000000000000000000000000000000000000000000000000000000000000000000000000000004000000000000000000010000000000000000010000000000000000000000000000000000000000000",
      "type": "0x2",
      "transactionHash": "0xe7f02f5559b995a2a00947dd0c039a0af70d529a3f2f55a28f6c37533237e570",
      "transactionIndex": "0x55",
      "blockHash": "0xaa6d43f09b9df12acb4ce85d6c21c34ea8621a3618e2b8d69574d410ca9cbb4a",
      "blockNumber": "0x9feb4c",
      "gasUsed": "0x971d",
      "effectiveGasPrice": "0xf4249",
      "from": "0x667c1abd4e25be048b8217f90fc576780cca8218",
      "to": "0x1c7d4b196cb0c7b01d743fbc6116a902379c7238",
      "contractAddress": null
    },
    {
      "status": "0x1",
      "cumulativeGasUsed": "0x8abfb7",
      "logs": [
        {
          "address": "0x3428fb59fa75e14a1ba6d33161fa69545f8b54af",
          "topics": [
            "0x8c5be1e5ebec7d5bd14f71427d1e84f3dd0314c0f7b2291e5b200ac8c7c3b925",
            "0x000000000000000000000000667c1abd4e25be048b8217f90fc576780cca8218",
            "0x000000000000000000000000e3bfb6ad2d6d996fbd8cbe9edc3d133e52e9f4f9"
          ],
          "data": "0xffffffffffffffffffffffffffffffffffffffffffffffffffffffffffffffff",
          "blockHash": "0xaa6d43f09b9df12acb4ce85d6c21c34ea8621a3618e2b8d69574d410ca9cbb4a",
          "blockNumber": "0x9feb4c",
          "blockTimestamp": "0x69bc9ca0",
          "transactionHash": "0x81477b79dcbe45fdd7abba97da15470e912073137ec15caa016ac2822a97ce67",
          "transactionIndex": "0x63",
          "logIndex": "0xd9",
          "removed": false
        }
      ],
      "logsBloom": "0x00000000000000000002000000000000000000000002000000000000000000000400000000000000000000000000000000000000000000000000000000200000000000000008000000000080008000000000000000000000000000000000000000000000000000000000000000000000000000000000000000000000000000000000000000000000000000000008000000000000000000000000000000000000020000000000000000000000000000000000000000000000000000000000000000000000000000000000000000000000000000000000004000000000000000000010000000000000008000000000000000000000000000000000000000000000",
      "type": "0x2",
      "transactionHash": "0x81477b79dcbe45fdd7abba97da15470e912073137ec15caa016ac2822a97ce67",
      "transactionIndex": "0x63",
      "blockHash": "0xaa6d43f09b9df12acb4ce85d6c21c34ea8621a3618e2b8d69574d410ca9cbb4a",
      "blockNumber": "0x9feb4c",
      "gasUsed": "0x74fa",
      "effectiveGasPrice": "0xf4249",
      "from": "0x667c1abd4e25be048b8217f90fc576780cca8218",
      "to": "0x3428fb59fa75e14a1ba6d33161fa69545f8b54af",
      "contractAddress": null
    },
    {
      "status": "0x1",
      "cumulativeGasUsed": "0xb9dcef",
      "logs": [
        {
          "address": "0x1c7d4b196cb0c7b01d743fbc6116a902379c7238",
          "topics": [
            "0xddf252ad1be2c89b69c2b068fc378daa952ba7f163c4a11628f55a4df523b3ef",
            "0x000000000000000000000000667c1abd4e25be048b8217f90fc576780cca8218",
            "0x000000000000000000000000e3bfb6ad2d6d996fbd8cbe9edc3d133e52e9f4f9"
          ],
          "data": "0x00000000000000000000000000000000000000000000000000000000001e8480",
          "blockHash": "0xaa6d43f09b9df12acb4ce85d6c21c34ea8621a3618e2b8d69574d410ca9cbb4a",
          "blockNumber": "0x9feb4c",
          "blockTimestamp": "0x69bc9ca0",
          "transactionHash": "0x33ae9fc2104d172bda8d07092f51d9b42df9aa55b404b3a9d0bc987a048b57d9",
          "transactionIndex": "0x74",
          "logIndex": "0xec",
          "removed": false
        },
        {
          "address": "0x3428fb59fa75e14a1ba6d33161fa69545f8b54af",
          "topics": [
            "0xddf252ad1be2c89b69c2b068fc378daa952ba7f163c4a11628f55a4df523b3ef",
            "0x000000000000000000000000667c1abd4e25be048b8217f90fc576780cca8218",
            "0x000000000000000000000000e3bfb6ad2d6d996fbd8cbe9edc3d133e52e9f4f9"
          ],
          "data": "0x00000000000000000000000000000000000000000000000000000000001e8480",
          "blockHash": "0xaa6d43f09b9df12acb4ce85d6c21c34ea8621a3618e2b8d69574d410ca9cbb4a",
          "blockNumber": "0x9feb4c",
          "blockTimestamp": "0x69bc9ca0",
          "transactionHash": "0x33ae9fc2104d172bda8d07092f51d9b42df9aa55b404b3a9d0bc987a048b57d9",
          "transactionIndex": "0x74",
          "logIndex": "0xed",
          "removed": false
        },
        {
          "address": "0x1c7d4b196cb0c7b01d743fbc6116a902379c7238",
          "topics": [
            "0x8c5be1e5ebec7d5bd14f71427d1e84f3dd0314c0f7b2291e5b200ac8c7c3b925",
            "0x000000000000000000000000e3bfb6ad2d6d996fbd8cbe9edc3d133e52e9f4f9",
            "0x000000000000000000000000e03a1074c86cfedd5c142c4f04f1a1536e203543"
          ],
          "data": "0xffffffffffffffffffffffffffffffffffffffffffffffffffffffffffffffff",
          "blockHash": "0xaa6d43f09b9df12acb4ce85d6c21c34ea8621a3618e2b8d69574d410ca9cbb4a",
          "blockNumber": "0x9feb4c",
          "blockTimestamp": "0x69bc9ca0",
          "transactionHash": "0x33ae9fc2104d172bda8d07092f51d9b42df9aa55b404b3a9d0bc987a048b57d9",
          "transactionIndex": "0x74",
          "logIndex": "0xee",
          "removed": false
        },
        {
          "address": "0x3428fb59fa75e14a1ba6d33161fa69545f8b54af",
          "topics": [
            "0x8c5be1e5ebec7d5bd14f71427d1e84f3dd0314c0f7b2291e5b200ac8c7c3b925",
            "0x000000000000000000000000e3bfb6ad2d6d996fbd8cbe9edc3d133e52e9f4f9",
            "0x000000000000000000000000e03a1074c86cfedd5c142c4f04f1a1536e203543"
          ],
          "data": "0xffffffffffffffffffffffffffffffffffffffffffffffffffffffffffffffff",
          "blockHash": "0xaa6d43f09b9df12acb4ce85d6c21c34ea8621a3618e2b8d69574d410ca9cbb4a",
          "blockNumber": "0x9feb4c",
          "blockTimestamp": "0x69bc9ca0",
          "transactionHash": "0x33ae9fc2104d172bda8d07092f51d9b42df9aa55b404b3a9d0bc987a048b57d9",
          "transactionIndex": "0x74",
          "logIndex": "0xef",
          "removed": false
        },
        {
          "address": "0xe03a1074c86cfedd5c142c4f04f1a1536e203543",
          "topics": [
            "0xf208f4912782fd25c7f114ca3723a2d5dd6f3bcc3ac8db5af63baa85f711d5ec",
            "0x9fd0796ea90a3acab268f569ff640b005d85a5096de8360a9417b3fa320aa0c6",
            "0x000000000000000000000000e3bfb6ad2d6d996fbd8cbe9edc3d133e52e9f4f9"
          ],
          "data": "0xfffffffffffffffffffffffffffffffffffffffffffffffffffffffffffffda8000000000000000000000000000000000000000000000000000000000000025800000000000000000000000000000000000000000000000000000000020451bb0000000000000000000000000000000000000000000000000000000000000000",
          "blockHash": "0xaa6d43f09b9df12acb4ce85d6c21c34ea8621a3618e2b8d69574d410ca9cbb4a",
          "blockNumber": "0x9feb4c",
          "blockTimestamp": "0x69bc9ca0",
          "transactionHash": "0x33ae9fc2104d172bda8d07092f51d9b42df9aa55b404b3a9d0bc987a048b57d9",
          "transactionIndex": "0x74",
          "logIndex": "0xf0",
          "removed": false
        },
        {
          "address": "0x1c7d4b196cb0c7b01d743fbc6116a902379c7238",
          "topics": [
            "0xddf252ad1be2c89b69c2b068fc378daa952ba7f163c4a11628f55a4df523b3ef",
            "0x000000000000000000000000e03a1074c86cfedd5c142c4f04f1a1536e203543",
            "0x0000000000000000000000007bdc5e441da38e15d7c0911acf96a04fb67624ce"
          ],
          "data": "0x00000000000000000000000000000000000000000000000000000000000f4240",
          "blockHash": "0xaa6d43f09b9df12acb4ce85d6c21c34ea8621a3618e2b8d69574d410ca9cbb4a",
          "blockNumber": "0x9feb4c",
          "blockTimestamp": "0x69bc9ca0",
          "transactionHash": "0x33ae9fc2104d172bda8d07092f51d9b42df9aa55b404b3a9d0bc987a048b57d9",
          "transactionIndex": "0x74",
          "logIndex": "0xf1",
          "removed": false
        },
        {
          "address": "0x1c7d4b196cb0c7b01d743fbc6116a902379c7238",
          "topics": [
            "0xddf252ad1be2c89b69c2b068fc378daa952ba7f163c4a11628f55a4df523b3ef",
            "0x000000000000000000000000e3bfb6ad2d6d996fbd8cbe9edc3d133e52e9f4f9",
            "0x000000000000000000000000e03a1074c86cfedd5c142c4f04f1a1536e203543"
          ],
          "data": "0x00000000000000000000000000000000000000000000000000000000001e8480",
          "blockHash": "0xaa6d43f09b9df12acb4ce85d6c21c34ea8621a3618e2b8d69574d410ca9cbb4a",
          "blockNumber": "0x9feb4c",
          "blockTimestamp": "0x69bc9ca0",
          "transactionHash": "0x33ae9fc2104d172bda8d07092f51d9b42df9aa55b404b3a9d0bc987a048b57d9",
          "transactionIndex": "0x74",
          "logIndex": "0xf2",
          "removed": false
        },
        {
          "address": "0x3428fb59fa75e14a1ba6d33161fa69545f8b54af",
          "topics": [
            "0xddf252ad1be2c89b69c2b068fc378daa952ba7f163c4a11628f55a4df523b3ef",
            "0x000000000000000000000000e3bfb6ad2d6d996fbd8cbe9edc3d133e52e9f4f9",
            "0x000000000000000000000000e03a1074c86cfedd5c142c4f04f1a1536e203543"
          ],
          "data": "0x00000000000000000000000000000000000000000000000000000000000f4240",
          "blockHash": "0xaa6d43f09b9df12acb4ce85d6c21c34ea8621a3618e2b8d69574d410ca9cbb4a",
          "blockNumber": "0x9feb4c",
          "blockTimestamp": "0x69bc9ca0",
          "transactionHash": "0x33ae9fc2104d172bda8d07092f51d9b42df9aa55b404b3a9d0bc987a048b57d9",
          "transactionIndex": "0x74",
          "logIndex": "0xf3",
          "removed": false
        }
      ],
      "logsBloom": "0x00000000000000000002000000000080000000000002000000000000000200000c00000000000000000000000000000000000100000000000000000000200000000000000008000000000088008000000000000000000000000000000000000000000000000000000000000080000000000000000000100000000010000000000000000001102000000010000008000000000010000000000000400000000000020004000000000000000000000000000000000000000000000000000000000000000002000000000000000000000000000000000000004000101000000000001010000000000000008010000000000004000000000000000000000000000000",
      "type": "0x2",
      "transactionHash": "0x33ae9fc2104d172bda8d07092f51d9b42df9aa55b404b3a9d0bc987a048b57d9",
      "transactionIndex": "0x74",
      "blockHash": "0xaa6d43f09b9df12acb4ce85d6c21c34ea8621a3618e2b8d69574d410ca9cbb4a",
      "blockNumber": "0x9feb4c",
      "gasUsed": "0x4958d",
      "effectiveGasPrice": "0xf4249",
      "from": "0x667c1abd4e25be048b8217f90fc576780cca8218",
      "to": "0xe3bfb6ad2d6d996fbd8cbe9edc3d133e52e9f4f9",
      "contractAddress": null
    }
  ],
  "libraries": [],
  "pending": [],
  "returns": {},
  "timestamp": 1773968543580,
  "chain": 11155111,
  "commit": "232ed5d"
}